{"abi":[{"type":"constructor","inputs":[{"name":"pool","type":"address","internalType":"address"},{"name":"underlyingAsset","type":"address","internalType":"address"},{"name":"tokenName","type":"string","internalType":"string"},{"name":"tokenSymbol","type":"string","internalType":"string"}],"stateMutability":"nonpayable"},{"type":"function","name":"LENDING_POOL","inputs":[],"outputs":[{"name":"","type":"address","internalType":"address"}],"stateMutability":"view"},{"type":"function","name":"UNDERLYING_ASSET_ADDRESS","inputs":[],"outputs":[{"name":"","type":"address","internalType":"address"}],"stateMutability":"view"},{"type":"function","name":"_lendingPool","inputs":[],"outputs":[{"name":"","type":"address","internalType":"contract ILendingPool"}],"stateMutability":"view"},{"type":"function","name":"_underlyingAsset","inputs":[],"outputs":[{"name":"","type":"address","internalType":"address"}],"stateMutability":"view"},{"type":"function","name":"allowance","inputs":[{"name":"owner","type":"address","internalType":"address"},{"name":"spender","type":"address","internalType":"address"}],"outputs":[{"name":"","type":"uint256","internalType":"uint256"}],"stateMutability":"view"},{"type":"function","name":"approve","inputs":[{"name":"spender","type":"address","internalType":"address"},{"name":"value","type":"uint256","internalType":"uint256"}],"outputs":[{"name":"","type":"bool","internalType":"bool"}],"stateMutability":"nonpayable"},{"type":"function","name":"balanceOf","inputs":[{"name":"account","type":"address","internalType":"address"}],"outputs":[{"name":"","type":"uint256","internalType":"uint256"}],"stateMutability":"view"},{"type":"function","name":"burn","inputs":[{"name":"_user","type":"address","internalType":"address"},{"name":"_amountToWithdrawInUnderlying","type":"uint256","internalType":"uint256"},{"name":"_liquidityIndexAtTimeOfBurn","type":"uint256","internalType":"uint256"}],"outputs":[{"name":"burnedScaledAmount","type":"uint256","internalType":"uint256"}],"stateMutability":"nonpayable"},{"type":"function","name":"decimals","inputs":[],"outputs":[{"name":"","type":"uint8","internalType":"uint8"}],"stateMutability":"view"},{"type":"function","name":"getScaledTotalSupply","inputs":[],"outputs":[{"name":"","type":"uint256","internalType":"uint256"}],"stateMutability":"view"},{"type":"function","name":"mint","inputs":[{"name":"_user","type":"address","internalType":"address"},{"name":"_amountInUnderlying","type":"uint256","internalType":"uint256"},{"name":"_liquidityIndexAtTimeOfMint","type":"uint256","internalType":"uint256"}],"outputs":[{"name":"mintedScaledAmount","type":"uint256","internalType":"uint256"}],"stateMutability":"nonpayable"},{"type":"function","name":"name","inputs":[],"outputs":[{"name":"","type":"string","internalType":"string"}],"stateMutability":"view"},{"type":"function","name":"scaledBalanceOf","inputs":[{"name":"user","type":"address","internalType":"address"}],"outputs":[{"name":"","type":"uint256","internalType":"uint256"}],"stateMutability":"view"},{"type":"function","name":"symbol","inputs":[],"outputs":[{"name":"","type":"string","internalType":"string"}],"stateMutability":"view"},{"type":"function","name":"totalSupply","inputs":[],"outputs":[{"name":"","type":"uint256","internalType":"uint256"}],"stateMutability":"view"},{"type":"function","name":"transfer","inputs":[{"name":"to","type":"address","internalType":"address"},{"name":"value","type":"uint256","internalType":"uint256"}],"outputs":[{"name":"","type":"bool","internalType":"bool"}],"stateMutability":"nonpayable"},{"type":"function","name":"transferFrom","inputs":[{"name":"from","type":"address","internalType":"address"},{"name":"to","type":"address","internalType":"address"},{"name":"value","type":"uint256","internalType":"uint256"}],"outputs":[{"name":"","type":"bool","internalType":"bool"}],"stateMutability":"nonpayable"},{"type":"event","name":"Approval","inputs":[{"name":"owner","type":"address","indexed":true,"internalType":"address"},{"name":"spender","type":"address","indexed":true,"internalType":"address"},{"name":"value","type":"uint256","indexed":false,"internalType":"uint256"}],"anonymous":false},{"type":"event","name":"Transfer","inputs":[{"name":"from","type":"address","indexed":true,"internalType":"address"},{"name":"to","type":"address","indexed":true,"internalType":"address"},{"name":"value","type":"uint256","indexed":false,"internalType":"uint256"}],"anonymous":false},{"type":"error","name":"ERC20InsufficientAllowance","inputs":[{"name":"spender","type":"address","internalType":"address"},{"name":"allowance","type":"uint256","internalType":"uint256"},{"name":"needed","type":"uint256","internalType":"uint256"}]},{"type":"error","name":"ERC20InsufficientBalance","inputs":[{"name":"sender","type":"address","internalType":"address"},{"name":"balance","type":"uint256","internalType":"uint256"},{"name":"needed","type":"uint256","internalType":"uint256"}]},{"type":"error","name":"ERC20InvalidApprover","inputs":[{"name":"approver","type":"address","internalType":"address"}]},{"type":"error","name":"ERC20InvalidReceiver","inputs":[{"name":"receiver","type":"address","internalType":"address"}]},{"type":"error","name":"ERC20InvalidSender","inputs":[{"name":"sender","type":"address","internalType":"address"}]},{"type":"error","name":"ERC20InvalidSpender","inputs":[{"name":"spender","type":"address","internalType":"address"}]}],"bytecode":{"object":"0x60c06040523462000382576200140b803803806200001d8162000386565b928339810160808282031262000382576200003882620003ac565b9060209062000049828501620003ac565b604085015190946001600160401b03918281116200038257836200006f918301620003c1565b9260608201518381116200038257620000899201620003c1565b82518281116200028d576003918254916001958684811c9416801562000377575b8885101462000363578190601f9485811162000310575b508890858311600114620002ad575f92620002a1575b50505f1982861b1c191690861b1783555b80519384116200028d5760049586548681811c9116801562000282575b828210146200026f5783811162000227575b5080928511600114620001bd57509383949184925f95620001b1575b50501b925f19911b1c19161790555b6001600160a01b031660805260a052604051610fd9908162000432823960805181818160ff01528181610316015281816105060152818161070c01528181610a4201528181610e120152610eeb015260a0518181816104d701528181610b2701528181610de20152610eb50152f35b015193505f8062000133565b92919084601f198116885f52855f20955f905b898383106200020c5750505010620001f2575b50505050811b01905562000142565b01519060f8845f19921b161c191690555f808080620001e3565b858701518955909701969485019488935090810190620001d0565b875f52815f208480880160051c82019284891062000265575b0160051c019087905b8281106200025957505062000117565b5f815501879062000249565b9250819262000240565b602288634e487b7160e01b5f525260245ffd5b90607f169062000105565b634e487b7160e01b5f52604160045260245ffd5b015190505f80620000d7565b90889350601f19831691875f528a5f20925f5b8c828210620002f95750508411620002e1575b505050811b018355620000e8565b01515f1983881b60f8161c191690555f8080620002d3565b8385015186558c97909501949384019301620002c0565b909150855f52885f208580850160051c8201928b861062000359575b918a91869594930160051c01915b8281106200034a575050620000c1565b5f81558594508a91016200033a565b925081926200032c565b634e487b7160e01b5f52602260045260245ffd5b93607f1693620000aa565b5f80fd5b6040519190601f01601f191682016001600160401b038111838210176200028d57604052565b51906001600160a01b03821682036200038257565b919080601f84011215620003825782516001600160401b0381116200028d57602090620003f7601f8201601f1916830162000386565b9281845282828701011162000382575f5b8181106200041d5750825f9394955001015290565b85810183015184820184015282016200040856fe6080604081815260049081361015610015575f80fd5b5f92833560e01c9081630500510d14610a2e5750806306fdde031461093b578063095ea7b314610891578063156e29f6146106e957806318160ddd146106cc5780631da24f3e1461069557806323b872dd146105a3578063244e77f914610584578063313ce567146104ac57806370a082311461047f57806382776b621461034557806395d89b411461037b578063a9059cbb1461034a578063b16a19de14610345578063b4dcfc7714610301578063dd62ed3e146102b45763f5298aca146100dc575f80fd5b346102b0576100ea36610ae8565b91946001600160a01b039490929091610126337f0000000000000000000000000000000000000000000000000000000000000000881614610f49565b811561026d576b033b2e3c9fd0803ce80000009081810291818304149015171561025a579061015491610d92565b9384156102095785169485156101f3578583528260205283832054918583106101bf5750509383602095828452838752038383205583600254036002557fddf252ad1be2c89b69c2b068fc378daa952ba7f163c4a11628f55a4df523b3ef858451868152a351908152f35b845163391434e360e21b81526001600160a01b03909216908201908152602081018390526040810186905281906060010390fd5b509151634b637e8f60e11b815291820152602490fd5b835162461bcd60e51b8152602081840152602560248201527f41546f6b656e3a20416d6f756e7420746f206275726e2063616e6e6f74206265604482015264207a65726f60d81b6064820152608490fd5b634e487b7160e01b845260118352602484fd5b845162461bcd60e51b8152602081850152601c60248201527f41546f6b656e3a20496e6465782063616e6e6f74206265207a65726f000000006044820152606490fd5b8280fd5b8382346102fd57806003193601126102fd57806020926102d2610ab8565b6102da610ad2565b6001600160a01b0391821683526001865283832091168252845220549051908152f35b5080fd5b8382346102fd57816003193601126102fd57517f00000000000000000000000000000000000000000000000000000000000000006001600160a01b03168152602090f35b610b12565b8382346102fd57806003193601126102fd5760209061037461036a610ab8565b6024359033610b8c565b5160018152f35b508290346102fd57816003193601126102fd57805191809380549160019083821c92828516948515610475575b60209586861081146104625785895290811561043e57506001146103e6575b6103e287876103d8828c0383610b56565b5191829182610a71565b0390f35b81529295507f8a35acfbc15ff81a39ae7d344fd709f28e8600b4aa8c65c6b64bfe7fe36bd19b5b82841061042b57505050826103e2946103d8928201019486806103c7565b805486850188015292860192810161040d565b60ff19168887015250505050151560051b83010192506103d8826103e286806103c7565b634e487b7160e01b845260228352602484fd5b93607f16936103a8565b8382346102fd5760203660031901126102fd576020906104a56104a0610ab8565b610db0565b9051908152f35b50823461058157806003193601126105815781518093631652e7b760e01b825260018060a01b0390817f000000000000000000000000000000000000000000000000000000000000000016908301528160246102009384937f0000000000000000000000000000000000000000000000000000000000000000165afa9182156105765760209460ff93869390610549575b50500151169051908152f35b6105689250803d1061056f575b6105608183610b56565b810190610c7b565b858061053d565b503d610556565b8351903d90823e3d90fd5b80fd5b8382346102fd57816003193601126102fd576020906002549051908152f35b509134610581576060366003190112610581576105be610ab8565b6105c6610ad2565b916044359360018060a01b038316808352600160205286832033845260205286832054915f198310610601575b602088610374898989610b8c565b86831061066957811561065257331561063b575082526001602090815286832033845281529186902090859003905582906103745f6105f3565b8751634a1406b160e11b8152908101849052602490fd5b875163e602df0560e01b8152908101849052602490fd5b8751637dc7a0d960e11b8152339181019182526020820193909352604081018790528291506060010390fd5b8382346102fd5760203660031901126102fd5760209181906001600160a01b036106bd610ab8565b16815280845220549051908152f35b8382346102fd57816003193601126102fd576020906104a5610e95565b508290346102fd576106fa36610ae8565b9193916001600160a01b0391610733337f0000000000000000000000000000000000000000000000000000000000000000851614610f49565b811561084e576b033b2e3c9fd0803ce80000009081810291818304149015171561083b579061076191610d92565b9384156107ea57169081156107d4576002548481018091116107c157602095506002558181528085528281208481540190557fddf252ad1be2c89b69c2b068fc378daa952ba7f163c4a11628f55a4df523b3ef858451868152a351908152f35b634e487b7160e01b825260118652602482fd5b8460249184519163ec442f0560e01b8352820152fd5b835162461bcd60e51b8152602081880152602560248201527f41546f6b656e3a20416d6f756e7420746f206d696e742063616e6e6f74206265604482015264207a65726f60d81b6064820152608490fd5b634e487b7160e01b845260118752602484fd5b845162461bcd60e51b8152602081890152601960248201527f41546f6b656e3a20496e64657820636f6e6e6f742062652030000000000000006044820152606490fd5b5090346102b057816003193601126102b0576108ab610ab8565b602435903315610924576001600160a01b031691821561090d57508083602095338152600187528181208582528752205582519081527f8c5be1e5ebec7d5bd14f71427d1e84f3dd0314c0f7b2291e5b200ac8c7c3b925843392a35160018152f35b8351634a1406b160e11b8152908101859052602490fd5b835163e602df0560e01b8152808401869052602490fd5b50346102b057826003193601126102b057805191836003549060019082821c928281168015610a24575b6020958686108214610a1157508488529081156109ef5750600114610996575b6103e286866103d8828b0383610b56565b929550600383527fc2575a0e9e593c00f959f8c92f12db2869c3395a3b0502d05e2516446f71f85b5b8284106109dc57505050826103e2946103d892820101945f610985565b80548685018801529286019281016109bf565b60ff191687860152505050151560051b83010192506103d8826103e25f610985565b634e487b7160e01b845260229052602483fd5b93607f1693610965565b8490346102fd57816003193601126102fd577f00000000000000000000000000000000000000000000000000000000000000006001600160a01b03168152602090f35b602080825282518183018190529093925f5b828110610aa457505060409293505f838284010152601f8019910116010190565b818101860151848201604001528501610a83565b600435906001600160a01b0382168203610ace57565b5f80fd5b602435906001600160a01b0382168203610ace57565b6060906003190112610ace576004356001600160a01b0381168103610ace57906024359060443590565b34610ace575f366003190112610ace576040517f00000000000000000000000000000000000000000000000000000000000000006001600160a01b03168152602090f35b90601f8019910116810190811067ffffffffffffffff821117610b7857604052565b634e487b7160e01b5f52604160045260245ffd5b916001600160a01b03808416928315610c4f5716928315610c37575f9083825281602052604082205490838210610c05575091604082827fddf252ad1be2c89b69c2b068fc378daa952ba7f163c4a11628f55a4df523b3ef958760209652828652038282205586815220818154019055604051908152a3565b60405163391434e360e21b81526001600160a01b03919091166004820152602481019190915260448101839052606490fd5b60405163ec442f0560e01b81525f6004820152602490fd5b604051634b637e8f60e11b81525f6004820152602490fd5b51906001600160a01b0382168203610ace57565b80916102009283910312610ace5760405191820182811067ffffffffffffffff821117610b785760405280518015158103610ace578252602081015160ff81168103610ace5760208301526040810151604083015260608101516060830152610ce660808201610c67565b608083015260a081015160a083015260c081015160c083015260e081015160e0830152610100808201519083015261012080820151908301526101408082015190830152610160808201519083015261018080820151908301526101a0610d4e818301610c67565b908301526101c080820151908301526101e0809101519082015290565b81810292918115918404141715610d7e57565b634e487b7160e01b5f52601160045260245ffd5b8115610d9c570490565b634e487b7160e01b5f52601260045260245ffd5b6001600160a01b039081165f90815260208190526040812054918215610e8f576040518091631652e7b760e01b8252807f00000000000000000000000000000000000000000000000000000000000000001660048301528160246102009384937f0000000000000000000000000000000000000000000000000000000000000000165afa928315610e8357926b033b2e3c9fd0803ce8000000949260e092610e629592610e66575b5050015190610d6b565b0490565b610e7c9250803d1061056f576105608183610b56565b5f80610e58565b604051903d90823e3d90fd5b50905090565b6002548015610f4457604051631652e7b760e01b81526001600160a01b037f00000000000000000000000000000000000000000000000000000000000000008116600483015261020092908390839060249082907f0000000000000000000000000000000000000000000000000000000000000000165afa928315610f39576b033b2e3c9fd0803ce800000093610e629360e0925f92610e66575050015190610d6b565b6040513d5f823e3d90fd5b505f90565b15610f5057565b60405162461bcd60e51b815260206004820152602560248201527f41546f6b656e3a2043616c6c6572206973206e6f7420746865204c656e64696e60448201526419d41bdbdb60da1b6064820152608490fdfea26469706673582212201ce4719ce8bfee603f7fc5b7d94a9e092a405bf7c33331e01285d9c0d23ba21b64736f6c63430008140033","linkReferences":{}},"methodIdentifiers":{"LENDING_POOL()":"b4dcfc77","UNDERLYING_ASSET_ADDRESS()":"b16a19de","_lendingPool()":"0500510d","_underlyingAsset()":"82776b62","allowance(address,address)":"dd62ed3e","approve(address,uint256)":"095ea7b3","balanceOf(address)":"70a08231","burn(address,uint256,uint256)":"f5298aca","decimals()":"313ce567","getScaledTotalSupply()":"244e77f9","mint(address,uint256,uint256)":"156e29f6","name()":"06fdde03","scaledBalanceOf(address)":"1da24f3e","symbol()":"95d89b41","totalSupply()":"18160ddd","transfer(address,uint256)":"a9059cbb","transferFrom(address,address,uint256)":"23b872dd"},"id":46}