{
  "abi": [
    {
      "type": "constructor",
      "inputs": [
        {
          "name": "_lendingPoolAddress",
          "type": "address",
          "internalType": "address"
        }
      ],
      "stateMutability": "nonpayable"
    },
    {
      "type": "function",
      "name": "PERCENTAGE_FACTOR",
      "inputs": [],
      "outputs": [
        {
          "name": "",
          "type": "uint256",
          "internalType": "uint256"
        }
      ],
      "stateMutability": "view"
    },
    {
      "type": "function",
      "name": "addAsset",
      "inputs": [
        {
          "name": "_asset",
          "type": "address",
          "internalType": "address"
        },
        {
          "name": "_ltv",
          "type": "uint256",
          "internalType": "uint256"
        },
        {
          "name": "_liquidationThreshold",
          "type": "uint256",
          "internalType": "uint256"
        },
        {
          "name": "_interestRateStrategy",
          "type": "address",
          "internalType": "address"
        },
        {
          "name": "_reserveFactor",
          "type": "uint256",
          "internalType": "uint256"
        },
        {
          "name": "_liquidationBonus",
          "type": "uint256",
          "internalType": "uint256"
        }
      ],
      "outputs": [],
      "stateMutability": "nonpayable"
    },
    {
      "type": "function",
      "name": "lendingPool",
      "inputs": [],
      "outputs": [
        {
          "name": "",
          "type": "address",
          "internalType": "contract LendingPool"
        }
      ],
      "stateMutability": "view"
    },
    {
      "type": "function",
      "name": "owner",
      "inputs": [],
      "outputs": [
        {
          "name": "",
          "type": "address",
          "internalType": "address"
        }
      ],
      "stateMutability": "view"
    },
    {
      "type": "function",
      "name": "removeAsset",
      "inputs": [
        {
          "name": "_asset",
          "type": "address",
          "internalType": "address"
        }
      ],
      "outputs": [],
      "stateMutability": "nonpayable"
    },
    {
      "type": "function",
      "name": "renounceOwnership",
      "inputs": [],
      "outputs": [],
      "stateMutability": "nonpayable"
    },
    {
      "type": "function",
      "name": "setLendingPool",
      "inputs": [
        {
          "name": "_lendingPoolAddress",
          "type": "address",
          "internalType": "address"
        }
      ],
      "outputs": [],
      "stateMutability": "nonpayable"
    },
    {
      "type": "function",
      "name": "transferOwnership",
      "inputs": [
        {
          "name": "newOwner",
          "type": "address",
          "internalType": "address"
        }
      ],
      "outputs": [],
      "stateMutability": "nonpayable"
    },
    {
      "type": "function",
      "name": "updateAssetInterestRateStrategy",
      "inputs": [
        {
          "name": "_asset",
          "type": "address",
          "internalType": "address"
        },
        {
          "name": "_newStrategyAddress",
          "type": "address",
          "internalType": "address"
        }
      ],
      "outputs": [],
      "stateMutability": "nonpayable"
    },
    {
      "type": "function",
      "name": "updateAssetLiquidationBonus",
      "inputs": [
        {
          "name": "_asset",
          "type": "address",
          "internalType": "address"
        },
        {
          "name": "_newLiquidationBonus",
          "type": "uint256",
          "internalType": "uint256"
        }
      ],
      "outputs": [],
      "stateMutability": "nonpayable"
    },
    {
      "type": "function",
      "name": "updateAssetReserveFactor",
      "inputs": [
        {
          "name": "_asset",
          "type": "address",
          "internalType": "address"
        },
        {
          "name": "_newReserveFactor",
          "type": "uint256",
          "internalType": "uint256"
        }
      ],
      "outputs": [],
      "stateMutability": "nonpayable"
    },
    {
      "type": "event",
      "name": "LendingPoolSet",
      "inputs": [
        {
          "name": "lendingPoolAddress",
          "type": "address",
          "indexed": true,
          "internalType": "address"
        }
      ],
      "anonymous": false
    },
    {
      "type": "event",
      "name": "OwnershipTransferred",
      "inputs": [
        {
          "name": "previousOwner",
          "type": "address",
          "indexed": true,
          "internalType": "address"
        },
        {
          "name": "newOwner",
          "type": "address",
          "indexed": true,
          "internalType": "address"
        }
      ],
      "anonymous": false
    },
    {
      "type": "error",
      "name": "OwnableInvalidOwner",
      "inputs": [
        {
          "name": "owner",
          "type": "address",
          "internalType": "address"
        }
      ]
    }
  ],
  "bytecode": {
    "object": "0x60803461015457601f610afb38819003918201601f19168301916001600160401b038311848410176101585780849260209460405283398101031261015457516001600160a01b038082169182900361015457331561013c575f8054336001600160a01b031980831682178455939091167f8be0079c531659141344cd1fd0a4f28419497f9722a3daafe3b4186f6b6457e08380a3821580156100ac575b60405161098e908161016d8239f35b6100e657827f1222804283c650162c0f858b42dcc4564e940f0cc2b3f001bcd6af8aa00a2f3092600154161760015580a25f80808061009d565b60405162461bcd60e51b815260206004820152602860248201527f436f6e666967757261746f723a20496e76616c69644c656e64696e67506f6f6c604482015267206164647265737360c01b6064820152608490fd5b604051631e4fbdf760e01b81525f6004820152602490fd5b5f80fd5b634e487b7160e01b5f52604160045260245ffdfe60406080815260049081361015610014575f80fd5b5f91823560e01c8063113aa8b1146107aa578063305aae64146104b7578381634334bdcf146104395781634a5e42b11461039c57508063715018a6146103435783816381644d72146102ae575080638da5cb5b14610286578063a59a99731461025d578063e1561c761461014c578063ee01e5e71461012b5763f2fde38b1461009b575f80fd5b34610127576020366003190112610127576100b461086b565b906100bd610881565b6001600160a01b039182169283156101115750505f54826bffffffffffffffffffffffff60a01b8216175f55167f8be0079c531659141344cd1fd0a4f28419497f9722a3daafe3b4186f6b6457e05f80a380f35b51631e4fbdf760e01b8152908101849052602490fd5b8280fd5b505034610148578160031936011261014857602090516127108152f35b5080fd5b5082903461014857826003193601126101485761016761086b565b6001600160a01b03936024358581169391929084900361025957859061018b610881565b1680151580610250575b156101f757849560015416803b156101f357859283604492865197889586946379083d2f60e01b865285015260248401525af19081156101ea57506101d75750f35b6101e090610930565b6101e75780f35b80fd5b513d84823e3d90fd5b8580fd5b506020608492519162461bcd60e51b8352820152602d60248201527f436f6e666967757261746f723a20496e76616c6964206e65772049522073747260448201526c6174656779206164647265737360981b6064820152fd5b50831515610195565b5f80fd5b50503461014857816003193601126101485760015490516001600160a01b039091168152602090f35b505034610148578160031936011261014857905490516001600160a01b039091168152602090f35b9290503461033f578060031936011261033f576102c961086b565b6102d1610881565b6001600160a01b036102e682821615156108d8565b6001541692833b1561033b57825163282dacd360e11b81526001600160a01b039092169082019081526024356020820152909284918491908290849082906040015b03925af19081156101ea57506101d75750f35b8480fd5b5050fd5b83346101e757806003193601126101e75761035c610881565b5f80546001600160a01b0319811682556001600160a01b03167f8be0079c531659141344cd1fd0a4f28419497f9722a3daafe3b4186f6b6457e08280a380f35b9290503461033f57602036600319011261033f576103b861086b565b916103c1610881565b6001600160a01b03928316926103d88415156108d8565b6001541692833b1561033b5761010485928385519687948593631605fcdb60e21b85528401528160248401528160448401528160648401528160848401528160a48401528160c48401528160e48401525af19081156101ea57506101d75750f35b9290503461033f578060031936011261033f5761045461086b565b61045c610881565b6001600160a01b0361047182821615156108d8565b6001541692833b1561033b57825163067b6b7d60e51b81526001600160a01b03909216908201908152602435602082015290928491849190829084908290604001610328565b5082346101e75760c03660031901126101e7576104d261086b565b6001600160a01b03936064929091833586811690819003610127578660a435926104fa610881565b16916105078315156108d8565b811561074b576113888110156106f857845163313ce56760e01b81526020989089818a81885afa869181610695575b5061059657865162461bcd60e51b8152808a018b9052603060248201527f436f6e666967757261746f723a20436f756c64206e6f7420666574636820646560448201526f18da5b585b1cc8199bdc88185cdcd95d60821b818a0152608490fd5b91899695979160ff8a9416978815158061068a575b1561062d5750908895949392916001541690813b156106295761010494879389519a8b988997631605fcdb60e21b895288015260016024880152604487015260243590860152604435608486015260a485015260843560c485015260e48401525af19081156101ea575061061d575080f35b61062690610930565b80f35b8680fd5b84726d616c7320286d75737420626520312d31382960681b856084938b519362461bcd60e51b8552840152603360248401527f436f6e666967757261746f723a20496e76616c696420617373657420646563696044840152820152fd5b5060128911156105ab565b9091508a3d8c116106f1575b601f8101601f1916820167ffffffffffffffff8111838210176106de578c9183918b5281010312610629575160ff8116810361062957908b610536565b634e487b7160e01b895260418c52602489fd5b503d6106a1565b845162461bcd60e51b8152602081890152602860248201527f436f6e666967757261746f723a204c69717569646174696f6e20626f6e7573206044820152670e8dede40d0d2ced60c31b81880152608490fd5b845162461bcd60e51b8152602081890152603460248201527f436f6e666967757261746f723a20496e76616c696420696e7465726573742072604482015273617465207374726174656779206164647265737360601b81880152608490fd5b5034610127576020366003190112610127576107c461086b565b6107cc610881565b6001600160a01b0316918215610817575050600180546001600160a01b031916821790557f1222804283c650162c0f858b42dcc4564e940f0cc2b3f001bcd6af8aa00a2f308280a280f35b906020608492519162461bcd60e51b8352820152602860248201527f436f6e666967757261746f723a20496e76616c69644c656e64696e67506f6f6c604482015267206164647265737360c01b6064820152fd5b600435906001600160a01b038216820361025957565b5f546001600160a01b0316330361089457565b606460405162461bcd60e51b815260206004820152602060248201527f4f776e61626c653a2063616c6c6572206973206e6f7420746865206f776e65726044820152fd5b156108df57565b60405162461bcd60e51b815260206004820152602360248201527f436f6e666967757261746f723a20496e76616c6964206173736574206164647260448201526265737360e81b6064820152608490fd5b67ffffffffffffffff811161094457604052565b634e487b7160e01b5f52604160045260245ffdfea26469706673582212203f0e229ee00fd04c5f81bc4c89f49a4b789acbce3aadbb83b33ef794df2ccd3264736f6c63430008140033",
    "linkReferences": {}
  },
  "methodIdentifiers": {
    "PERCENTAGE_FACTOR()": "ee01e5e7",
    "addAsset(address,uint256,uint256,address,uint256,uint256)": "305aae64",
    "lendingPool()": "a59a9973",
    "owner()": "8da5cb5b",
    "removeAsset(address)": "4a5e42b1",
    "renounceOwnership()": "715018a6",
    "setLendingPool(address)": "113aa8b1",
    "transferOwnership(address)": "f2fde38b",
    "updateAssetInterestRateStrategy(address,address)": "e1561c76",
    "updateAssetLiquidationBonus(address,uint256)": "81644d72",
    "updateAssetReserveFactor(address,uint256)": "4334bdcf"
  },
  "id": 36
}