{
  "abi": [
    {
      "type": "constructor",
      "inputs": [
        {
          "name": "_configuratorAddress",
          "type": "address",
          "internalType": "address"
        },
        {
          "name": "_priceOracleAddress",
          "type": "address",
          "internalType": "address"
        }
      ],
      "stateMutability": "nonpayable"
    },
    {
      "type": "function",
      "name": "FLASHLOAN_FEE_BASIS_POINTS",
      "inputs": [],
      "outputs": [
        {
          "name": "",
          "type": "uint256",
          "internalType": "uint256"
        }
      ],
      "stateMutability": "view"
    },
    {
      "type": "function",
      "name": "HEALTH_FACTOR_PRECISION",
      "inputs": [],
      "outputs": [
        {
          "name": "",
          "type": "uint256",
          "internalType": "uint256"
        }
      ],
      "stateMutability": "view"
    },
    {
      "type": "function",
      "name": "MINIMUM_HEALTH_FACTOR",
      "inputs": [],
      "outputs": [
        {
          "name": "",
          "type": "uint256",
          "internalType": "uint256"
        }
      ],
      "stateMutability": "view"
    },
    {
      "type": "function",
      "name": "ORACLE_PRICE_DECIMALS",
      "inputs": [],
      "outputs": [
        {
          "name": "",
          "type": "uint256",
          "internalType": "uint256"
        }
      ],
      "stateMutability": "view"
    },
    {
      "type": "function",
      "name": "PERCENTAGE_FACTOR",
      "inputs": [],
      "outputs": [
        {
          "name": "",
          "type": "uint256",
          "internalType": "uint256"
        }
      ],
      "stateMutability": "view"
    },
    {
      "type": "function",
      "name": "RAY",
      "inputs": [],
      "outputs": [
        {
          "name": "",
          "type": "uint256",
          "internalType": "uint256"
        }
      ],
      "stateMutability": "view"
    },
    {
      "type": "function",
      "name": "SECONDS_PER_YEAR_FOR_RATES",
      "inputs": [],
      "outputs": [
        {
          "name": "",
          "type": "uint256",
          "internalType": "uint256"
        }
      ],
      "stateMutability": "view"
    },
    {
      "type": "function",
      "name": "assetData",
      "inputs": [
        {
          "name": "",
          "type": "address",
          "internalType": "address"
        }
      ],
      "outputs": [
        {
          "name": "isSupported",
          "type": "bool",
          "internalType": "bool"
        },
        {
          "name": "decimals",
          "type": "uint8",
          "internalType": "uint8"
        },
        {
          "name": "ltv",
          "type": "uint256",
          "internalType": "uint256"
        },
        {
          "name": "liquidationThreshold",
          "type": "uint256",
          "internalType": "uint256"
        },
        {
          "name": "interestRateStrategy",
          "type": "address",
          "internalType": "address"
        },
        {
          "name": "reserveFactor",
          "type": "uint256",
          "internalType": "uint256"
        },
        {
          "name": "liquidationBonus",
          "type": "uint256",
          "internalType": "uint256"
        },
        {
          "name": "liquidityIndex",
          "type": "uint256",
          "internalType": "uint256"
        },
        {
          "name": "variableBorrowIndex",
          "type": "uint256",
          "internalType": "uint256"
        },
        {
          "name": "lastUpdateTimestamp",
          "type": "uint256",
          "internalType": "uint256"
        },
        {
          "name": "totalScaledDeposits",
          "type": "uint256",
          "internalType": "uint256"
        },
        {
          "name": "totalScaledVariableBorrows",
          "type": "uint256",
          "internalType": "uint256"
        },
        {
          "name": "currentTotalReserves",
          "type": "uint256",
          "internalType": "uint256"
        },
        {
          "name": "aTokenAddress",
          "type": "address",
          "internalType": "address"
        }
      ],
      "stateMutability": "view"
    },
    {
      "type": "function",
      "name": "borrow",
      "inputs": [
        {
          "name": "_assetToBorrow",
          "type": "address",
          "internalType": "address"
        },
        {
          "name": "_amountToBorrowUnderlying",
          "type": "uint256",
          "internalType": "uint256"
        }
      ],
      "outputs": [],
      "stateMutability": "nonpayable"
    },
    {
      "type": "function",
      "name": "calculateHealthFactor",
      "inputs": [
        {
          "name": "_user",
          "type": "address",
          "internalType": "address"
        }
      ],
      "outputs": [
        {
          "name": "healthFactorVal",
          "type": "uint256",
          "internalType": "uint256"
        }
      ],
      "stateMutability": "view"
    },
    {
      "type": "function",
      "name": "configurator",
      "inputs": [],
      "outputs": [
        {
          "name": "",
          "type": "address",
          "internalType": "address"
        }
      ],
      "stateMutability": "view"
    },
    {
      "type": "function",
      "name": "configureAsset",
      "inputs": [
        {
          "name": "_asset",
          "type": "address",
          "internalType": "address"
        },
        {
          "name": "_isSupported",
          "type": "bool",
          "internalType": "bool"
        },
        {
          "name": "_assetDecimals",
          "type": "uint8",
          "internalType": "uint8"
        },
        {
          "name": "_ltv",
          "type": "uint256",
          "internalType": "uint256"
        },
        {
          "name": "_liquidationThreshold",
          "type": "uint256",
          "internalType": "uint256"
        },
        {
          "name": "_interestRateStrategy",
          "type": "address",
          "internalType": "address"
        },
        {
          "name": "_reserveFactor",
          "type": "uint256",
          "internalType": "uint256"
        },
        {
          "name": "_liquidationBonus",
          "type": "uint256",
          "internalType": "uint256"
        }
      ],
      "outputs": [],
      "stateMutability": "nonpayable"
    },
    {
      "type": "function",
      "name": "deposit",
      "inputs": [
        {
          "name": "_asset",
          "type": "address",
          "internalType": "address"
        },
        {
          "name": "_amount",
          "type": "uint256",
          "internalType": "uint256"
        }
      ],
      "outputs": [],
      "stateMutability": "nonpayable"
    },
    {
      "type": "function",
      "name": "flashLoan",
      "inputs": [
        {
          "name": "_receiverAddress",
          "type": "address",
          "internalType": "address"
        },
        {
          "name": "_asset",
          "type": "address",
          "internalType": "address"
        },
        {
          "name": "_amount",
          "type": "uint256",
          "internalType": "uint256"
        },
        {
          "name": "_params",
          "type": "bytes",
          "internalType": "bytes"
        }
      ],
      "outputs": [],
      "stateMutability": "nonpayable"
    },
    {
      "type": "function",
      "name": "getAssetData",
      "inputs": [
        {
          "name": "_asset",
          "type": "address",
          "internalType": "address"
        }
      ],
      "outputs": [
        {
          "name": "assetDataReturn",
          "type": "tuple",
          "internalType": "struct ILendingPool.AssetDataReturn",
          "components": [
            {
              "name": "isSupported",
              "type": "bool",
              "internalType": "bool"
            },
            {
              "name": "decimals",
              "type": "uint8",
              "internalType": "uint8"
            },
            {
              "name": "ltv",
              "type": "uint256",
              "internalType": "uint256"
            },
            {
              "name": "liquidationThreshold",
              "type": "uint256",
              "internalType": "uint256"
            },
            {
              "name": "interestRateStrategy",
              "type": "address",
              "internalType": "address"
            },
            {
              "name": "reserveFactor",
              "type": "uint256",
              "internalType": "uint256"
            },
            {
              "name": "liquidationBonus",
              "type": "uint256",
              "internalType": "uint256"
            },
            {
              "name": "liquidityIndex",
              "type": "uint256",
              "internalType": "uint256"
            },
            {
              "name": "variableBorrowIndex",
              "type": "uint256",
              "internalType": "uint256"
            },
            {
              "name": "lastUpdateTimestamp",
              "type": "uint256",
              "internalType": "uint256"
            },
            {
              "name": "totalScaledDeposits",
              "type": "uint256",
              "internalType": "uint256"
            },
            {
              "name": "totalScaledVariableBorrows",
              "type": "uint256",
              "internalType": "uint256"
            },
            {
              "name": "currentTotalReserves",
              "type": "uint256",
              "internalType": "uint256"
            },
            {
              "name": "aTokenAddress",
              "type": "address",
              "internalType": "address"
            },
            {
              "name": "currentAnnualLiquidityRateRAY",
              "type": "uint256",
              "internalType": "uint256"
            },
            {
              "name": "currentAnnualVariableBorrowRateRAY",
              "type": "uint256",
              "internalType": "uint256"
            }
          ]
        }
      ],
      "stateMutability": "view"
    },
    {
      "type": "function",
      "name": "getAssetPrice",
      "inputs": [
        {
          "name": "_asset",
          "type": "address",
          "internalType": "address"
        }
      ],
      "outputs": [
        {
          "name": "",
          "type": "uint256",
          "internalType": "uint256"
        }
      ],
      "stateMutability": "view"
    },
    {
      "type": "function",
      "name": "getCurrentTotalActualBorrows",
      "inputs": [
        {
          "name": "_asset",
          "type": "address",
          "internalType": "address"
        }
      ],
      "outputs": [
        {
          "name": "",
          "type": "uint256",
          "internalType": "uint256"
        }
      ],
      "stateMutability": "view"
    },
    {
      "type": "function",
      "name": "getCurrentTotalActualDeposits",
      "inputs": [
        {
          "name": "_asset",
          "type": "address",
          "internalType": "address"
        }
      ],
      "outputs": [
        {
          "name": "",
          "type": "uint256",
          "internalType": "uint256"
        }
      ],
      "stateMutability": "view"
    },
    {
      "type": "function",
      "name": "getEffectiveUserBorrowBalance",
      "inputs": [
        {
          "name": "_asset",
          "type": "address",
          "internalType": "address"
        },
        {
          "name": "_user",
          "type": "address",
          "internalType": "address"
        }
      ],
      "outputs": [
        {
          "name": "",
          "type": "uint256",
          "internalType": "uint256"
        }
      ],
      "stateMutability": "view"
    },
    {
      "type": "function",
      "name": "getEffectiveUserDeposit",
      "inputs": [
        {
          "name": "_asset",
          "type": "address",
          "internalType": "address"
        },
        {
          "name": "_user",
          "type": "address",
          "internalType": "address"
        }
      ],
      "outputs": [
        {
          "name": "",
          "type": "uint256",
          "internalType": "uint256"
        }
      ],
      "stateMutability": "view"
    },
    {
      "type": "function",
      "name": "getFlashLoanFeePercentage",
      "inputs": [],
      "outputs": [
        {
          "name": "",
          "type": "uint256",
          "internalType": "uint256"
        }
      ],
      "stateMutability": "pure"
    },
    {
      "type": "function",
      "name": "getPriceOracle",
      "inputs": [],
      "outputs": [
        {
          "name": "",
          "type": "address",
          "internalType": "address"
        }
      ],
      "stateMutability": "view"
    },
    {
      "type": "function",
      "name": "getScaledUserBorrowBalance",
      "inputs": [
        {
          "name": "_asset",
          "type": "address",
          "internalType": "address"
        },
        {
          "name": "_user",
          "type": "address",
          "internalType": "address"
        }
      ],
      "outputs": [
        {
          "name": "",
          "type": "uint256",
          "internalType": "uint256"
        }
      ],
      "stateMutability": "view"
    },
    {
      "type": "function",
      "name": "getScaledUserDeposit",
      "inputs": [
        {
          "name": "_asset",
          "type": "address",
          "internalType": "address"
        },
        {
          "name": "_user",
          "type": "address",
          "internalType": "address"
        }
      ],
      "outputs": [
        {
          "name": "",
          "type": "uint256",
          "internalType": "uint256"
        }
      ],
      "stateMutability": "view"
    },
    {
      "type": "function",
      "name": "getSupportedAssets",
      "inputs": [],
      "outputs": [
        {
          "name": "",
          "type": "address[]",
          "internalType": "address[]"
        }
      ],
      "stateMutability": "view"
    },
    {
      "type": "function",
      "name": "getUserAvailableBorrowsUSD",
      "inputs": [
        {
          "name": "_user",
          "type": "address",
          "internalType": "address"
        }
      ],
      "outputs": [
        {
          "name": "availableBorrowsUSDVal",
          "type": "uint256",
          "internalType": "uint256"
        }
      ],
      "stateMutability": "view"
    },
    {
      "type": "function",
      "name": "getUserBorrowPowerUSD",
      "inputs": [
        {
          "name": "_user",
          "type": "address",
          "internalType": "address"
        }
      ],
      "outputs": [
        {
          "name": "totalBorrowingPowerUSDVal",
          "type": "uint256",
          "internalType": "uint256"
        }
      ],
      "stateMutability": "view"
    },
    {
      "type": "function",
      "name": "getUserTotalCollateralUSD",
      "inputs": [
        {
          "name": "_user",
          "type": "address",
          "internalType": "address"
        }
      ],
      "outputs": [
        {
          "name": "totalCollateralUSDVal",
          "type": "uint256",
          "internalType": "uint256"
        }
      ],
      "stateMutability": "view"
    },
    {
      "type": "function",
      "name": "getUserTotalDebtUSD",
      "inputs": [
        {
          "name": "_user",
          "type": "address",
          "internalType": "address"
        }
      ],
      "outputs": [
        {
          "name": "totalDebtUSDVal",
          "type": "uint256",
          "internalType": "uint256"
        }
      ],
      "stateMutability": "view"
    },
    {
      "type": "function",
      "name": "liquidationCall",
      "inputs": [
        {
          "name": "_collateralAsset",
          "type": "address",
          "internalType": "address"
        },
        {
          "name": "_debtAsset",
          "type": "address",
          "internalType": "address"
        },
        {
          "name": "_userToLiquidate",
          "type": "address",
          "internalType": "address"
        },
        {
          "name": "_debtToCoverInUnderlying",
          "type": "uint256",
          "internalType": "uint256"
        },
        {
          "name": "_receiveUnderlyingCollateral",
          "type": "bool",
          "internalType": "bool"
        }
      ],
      "outputs": [],
      "stateMutability": "nonpayable"
    },
    {
      "type": "function",
      "name": "priceOracle",
      "inputs": [],
      "outputs": [
        {
          "name": "",
          "type": "address",
          "internalType": "contract IPriceOracle"
        }
      ],
      "stateMutability": "view"
    },
    {
      "type": "function",
      "name": "repay",
      "inputs": [
        {
          "name": "_assetBorrowed",
          "type": "address",
          "internalType": "address"
        },
        {
          "name": "_amountToRepayUnderlying",
          "type": "uint256",
          "internalType": "uint256"
        }
      ],
      "outputs": [],
      "stateMutability": "nonpayable"
    },
    {
      "type": "function",
      "name": "scaledUserBorrows",
      "inputs": [
        {
          "name": "",
          "type": "address",
          "internalType": "address"
        },
        {
          "name": "",
          "type": "address",
          "internalType": "address"
        }
      ],
      "outputs": [
        {
          "name": "",
          "type": "uint256",
          "internalType": "uint256"
        }
      ],
      "stateMutability": "view"
    },
    {
      "type": "function",
      "name": "scaledUserDeposits",
      "inputs": [
        {
          "name": "",
          "type": "address",
          "internalType": "address"
        },
        {
          "name": "",
          "type": "address",
          "internalType": "address"
        }
      ],
      "outputs": [
        {
          "name": "",
          "type": "uint256",
          "internalType": "uint256"
        }
      ],
      "stateMutability": "view"
    },
    {
      "type": "function",
      "name": "setAssetInterestRateStrategy",
      "inputs": [
        {
          "name": "_asset",
          "type": "address",
          "internalType": "address"
        },
        {
          "name": "_newStrategyAddress",
          "type": "address",
          "internalType": "address"
        }
      ],
      "outputs": [],
      "stateMutability": "nonpayable"
    },
    {
      "type": "function",
      "name": "setAssetLiquidationBonus",
      "inputs": [
        {
          "name": "_asset",
          "type": "address",
          "internalType": "address"
        },
        {
          "name": "_newLiquidationBonus",
          "type": "uint256",
          "internalType": "uint256"
        }
      ],
      "outputs": [],
      "stateMutability": "nonpayable"
    },
    {
      "type": "function",
      "name": "setAssetReserveFactor",
      "inputs": [
        {
          "name": "_asset",
          "type": "address",
          "internalType": "address"
        },
        {
          "name": "_newReserveFactor",
          "type": "uint256",
          "internalType": "uint256"
        }
      ],
      "outputs": [],
      "stateMutability": "nonpayable"
    },
    {
      "type": "function",
      "name": "supportedAssetsList",
      "inputs": [
        {
          "name": "",
          "type": "uint256",
          "internalType": "uint256"
        }
      ],
      "outputs": [
        {
          "name": "",
          "type": "address",
          "internalType": "address"
        }
      ],
      "stateMutability": "view"
    },
    {
      "type": "function",
      "name": "withdraw",
      "inputs": [
        {
          "name": "_asset",
          "type": "address",
          "internalType": "address"
        },
        {
          "name": "_amountToWithdrawUnderlying",
          "type": "uint256",
          "internalType": "uint256"
        }
      ],
      "outputs": [],
      "stateMutability": "nonpayable"
    },
    {
      "type": "event",
      "name": "AssetConfigured",
      "inputs": [
        {
          "name": "asset",
          "type": "address",
          "indexed": true,
          "internalType": "address"
        },
        {
          "name": "isSupported",
          "type": "bool",
          "indexed": false,
          "internalType": "bool"
        },
        {
          "name": "decimals",
          "type": "uint8",
          "indexed": false,
          "internalType": "uint8"
        },
        {
          "name": "ltv",
          "type": "uint256",
          "indexed": false,
          "internalType": "uint256"
        },
        {
          "name": "liquidationThreshold",
          "type": "uint256",
          "indexed": false,
          "internalType": "uint256"
        },
        {
          "name": "interestRateStrategy",
          "type": "address",
          "indexed": false,
          "internalType": "address"
        },
        {
          "name": "reserveFactor",
          "type": "uint256",
          "indexed": false,
          "internalType": "uint256"
        },
        {
          "name": "liquidationBonus",
          "type": "uint256",
          "indexed": false,
          "internalType": "uint256"
        }
      ],
      "anonymous": false
    },
    {
      "type": "event",
      "name": "Borrowed",
      "inputs": [
        {
          "name": "asset",
          "type": "address",
          "indexed": true,
          "internalType": "address"
        },
        {
          "name": "user",
          "type": "address",
          "indexed": true,
          "internalType": "address"
        },
        {
          "name": "amount",
          "type": "uint256",
          "indexed": false,
          "internalType": "uint256"
        },
        {
          "name": "scaledAmount",
          "type": "uint256",
          "indexed": false,
          "internalType": "uint256"
        },
        {
          "name": "timestamp",
          "type": "uint256",
          "indexed": false,
          "internalType": "uint256"
        }
      ],
      "anonymous": false
    },
    {
      "type": "event",
      "name": "Deposited",
      "inputs": [
        {
          "name": "asset",
          "type": "address",
          "indexed": true,
          "internalType": "address"
        },
        {
          "name": "user",
          "type": "address",
          "indexed": true,
          "internalType": "address"
        },
        {
          "name": "amount",
          "type": "uint256",
          "indexed": false,
          "internalType": "uint256"
        },
        {
          "name": "scaledAmount",
          "type": "uint256",
          "indexed": false,
          "internalType": "uint256"
        },
        {
          "name": "timestamp",
          "type": "uint256",
          "indexed": false,
          "internalType": "uint256"
        }
      ],
      "anonymous": false
    },
    {
      "type": "event",
      "name": "FlashLoan",
      "inputs": [
        {
          "name": "targetReceiver",
          "type": "address",
          "indexed": true,
          "internalType": "address"
        },
        {
          "name": "initiator",
          "type": "address",
          "indexed": true,
          "internalType": "address"
        },
        {
          "name": "asset",
          "type": "address",
          "indexed": true,
          "internalType": "address"
        },
        {
          "name": "amount",
          "type": "uint256",
          "indexed": false,
          "internalType": "uint256"
        },
        {
          "name": "fee",
          "type": "uint256",
          "indexed": false,
          "internalType": "uint256"
        },
        {
          "name": "timestamp",
          "type": "uint256",
          "indexed": false,
          "internalType": "uint256"
        }
      ],
      "anonymous": false
    },
    {
      "type": "event",
      "name": "InterestRateStrategyUpdated",
      "inputs": [
        {
          "name": "asset",
          "type": "address",
          "indexed": true,
          "internalType": "address"
        },
        {
          "name": "newStrategyAddress",
          "type": "address",
          "indexed": false,
          "internalType": "address"
        }
      ],
      "anonymous": false
    },
    {
      "type": "event",
      "name": "LiquidationCall",
      "inputs": [
        {
          "name": "collateralAsset",
          "type": "address",
          "indexed": true,
          "internalType": "address"
        },
        {
          "name": "debtAsset",
          "type": "address",
          "indexed": true,
          "internalType": "address"
        },
        {
          "name": "user",
          "type": "address",
          "indexed": true,
          "internalType": "address"
        },
        {
          "name": "debtToCover",
          "type": "uint256",
          "indexed": false,
          "internalType": "uint256"
        },
        {
          "name": "liquidatedCollateralAmount",
          "type": "uint256",
          "indexed": false,
          "internalType": "uint256"
        },
        {
          "name": "liquidator",
          "type": "address",
          "indexed": false,
          "internalType": "address"
        },
        {
          "name": "receiveUnderlyingCollateral",
          "type": "bool",
          "indexed": false,
          "internalType": "bool"
        },
        {
          "name": "timestamp",
          "type": "uint256",
          "indexed": false,
          "internalType": "uint256"
        }
      ],
      "anonymous": false
    },
    {
      "type": "event",
      "name": "Repaid",
      "inputs": [
        {
          "name": "asset",
          "type": "address",
          "indexed": true,
          "internalType": "address"
        },
        {
          "name": "userToRepayFor",
          "type": "address",
          "indexed": true,
          "internalType": "address"
        },
        {
          "name": "repayer",
          "type": "address",
          "indexed": true,
          "internalType": "address"
        },
        {
          "name": "amount",
          "type": "uint256",
          "indexed": false,
          "internalType": "uint256"
        },
        {
          "name": "scaledAmount",
          "type": "uint256",
          "indexed": false,
          "internalType": "uint256"
        },
        {
          "name": "timestamp",
          "type": "uint256",
          "indexed": false,
          "internalType": "uint256"
        }
      ],
      "anonymous": false
    },
    {
      "type": "event",
      "name": "ReserveFactorUpdated",
      "inputs": [
        {
          "name": "asset",
          "type": "address",
          "indexed": true,
          "internalType": "address"
        },
        {
          "name": "newReserveFactor",
          "type": "uint256",
          "indexed": false,
          "internalType": "uint256"
        }
      ],
      "anonymous": false
    },
    {
      "type": "event",
      "name": "ReservesCollected",
      "inputs": [
        {
          "name": "asset",
          "type": "address",
          "indexed": true,
          "internalType": "address"
        },
        {
          "name": "reserveCollector",
          "type": "address",
          "indexed": true,
          "internalType": "address"
        },
        {
          "name": "amountCollected",
          "type": "uint256",
          "indexed": false,
          "internalType": "uint256"
        }
      ],
      "anonymous": false
    },
    {
      "type": "event",
      "name": "Withdrawn",
      "inputs": [
        {
          "name": "asset",
          "type": "address",
          "indexed": true,
          "internalType": "address"
        },
        {
          "name": "user",
          "type": "address",
          "indexed": true,
          "internalType": "address"
        },
        {
          "name": "amount",
          "type": "uint256",
          "indexed": false,
          "internalType": "uint256"
        },
        {
          "name": "scaledAmount",
          "type": "uint256",
          "indexed": false,
          "internalType": "uint256"
        },
        {
          "name": "timestamp",
          "type": "uint256",
          "indexed": false,
          "internalType": "uint256"
        }
      ],
      "anonymous": false
    },
    {
      "type": "error",
      "name": "ReentrancyGuardReentrantCall",
      "inputs": []
    },
    {
      "type": "error",
      "name": "SafeERC20FailedOperation",
      "inputs": [
        {
          "name": "token",
          "type": "address",
          "internalType": "address"
        }
      ]
    }
  ],
  "bytecode": {
    "object": "0x60c06040908082523462000279578181620058b380380380916200002482856200027d565b83398101031262000279576200003a81620002b5565b620000496020809301620002b5565b60015f90815591906001600160a01b039081831615620002225716908115620001cc576004929184916080528060a0528551938480926306cc2abf60e21b82525afa918215620001c057819262000175575b505060ff6008911603620001255750516155e89081620002cb8239608051818181610a2501528181610ceb015281816112f801528181611c2d01526123bf015260a0518181816102a0015281816103830152818161070e01528181610bab01528181611d9201528181612bac01528181612c0b0152818161395c01528181613abc0152613c370152f35b608491519062461bcd60e51b82526004820152602560248201527f4c656e64696e67506f6f6c3a204f726163616c73206d69736c6520646563696d6044820152640dac2e8c6d60db1b6064820152fd5b9091508281813d8311620001b8575b6200019081836200027d565b81010312620001b457519060ff82168203620001b1575060ff60086200009b565b80fd5b5080fd5b503d62000184565b508351903d90823e3d90fd5b845162461bcd60e51b815260048101859052602960248201527f4c656e64696e67506f6f6c3a20496e76616c6964205072696365204f7261636c60448201526865206164647265737360b81b6064820152608490fd5b855162461bcd60e51b815260048101869052602a60248201527f4c656e64696e67506f6f6c3a2020496e76616c696420436f6e666967757261746044820152696f72206164647265737360b01b6064820152608490fd5b5f80fd5b601f909101601f19168101906001600160401b03821190821017620002a157604052565b634e487b7160e01b5f52604160045260245ffd5b51906001600160a01b0382168203620002795756fe60a0604052600436101562000012575f80fd5b5f3560e01c8062a718a91462002a645780630999e5111462002a3b578063145f65dc1462000b1357806315deef4b1462002a125780631652e7b714620026495780631a070739146200262c5780631b6c0676146200260357806322867d7814620023ee5780632630c12f146200036c5780632b507df814620023a85780633836f40d146200237f5780633fe42d60146200234b57806341fee44a146200227257806347e7ef2414620020b45780634aef662014620020805780634b8a35291462001ce3578063505b59a61462001bfc578063519bde401462001bc8578063552033c41462001ba15780635817f36c14620012a15780635cffe9de1462000e615780636055ebd11462000e38578063738de0ec14620009d9578063771d27441462000df157806379083d2f1462000cb45780637945afbd14620009b55780639c76c3f31462000c615780639ce625f71462000c19578063b3596f071462000b66578063b805b9fa1462000b13578063cf6d6fa014620009f6578063d877845c14620009d9578063df60481d14620009b5578063e2ea16e91462000995578063e5406dbf14620008c9578063ee01e5e714620008ab578063f3fef3a314620003b2578063fca513a8146200036c5763fe35ea9514620001ed575f80fd5b34620003455760208060031936011262000345576200020b62003228565b6004545f91825b8281106200022557505050604051908152f35b620002308162003256565b90546001600160a01b0360039290921b1c8116906200025084836200362d565b806200026b575b50505062000265906200357a565b62000212565b825f52600188528760ff60405f205460081c169384156200035c5760246040518095819363b3596f0760e01b835260048301527f0000000000000000000000000000000000000000000000000000000000000000165afa91821562000351575f9262000318575b50811562000257576200030e9262000300620002f9620002659699946200030794620032a0565b916200355a565b90620034da565b906200356c565b93905f8062000257565b9091508781813d831162000349575b620003338183620033ea565b81010312620003455751905f620002d2565b5f80fd5b503d62000327565b6040513d5f823e3d90fd5b505050505062000265906200357a565b3462000345575f36600319011262000345576040517f00000000000000000000000000000000000000000000000000000000000000006001600160a01b03168152602090f35b34620003455760403660031901126200034557620003cf62003228565b620003d9620034b8565b620003e48162003da0565b6001600160a01b0381165f90815260016020526040902080546200040b9060ff16620032b4565b6200041a602435151562003300565b600c8101546001600160a01b031690620004368215156200334d565b604051630ed1279f60e11b815233600482015290602082602481865afa91821562000351575f9262000871575b50676765c793fa10079d601b1b6200048160068301548094620032a0565b04602435811062000806576200049b9060243590620034f9565b620004a633620038c3565b9081620005fd575b5050604051637a94c56560e11b8152336004820152602480359082015260448101929092526020826064815f875af191821562000351575f92620005c2575b506020600492936040519384809263244e77f960e01b82525afa91821562000351575f9262000587575b506009015562000534602435336001600160a01b03851662003507565b6040805160243581526020810192909252429082015233916001600160a01b0316907f3cae9923fd3c2f468aa25a8ef687923e37f957459557c0380fd06526c0b8cdbc9080606081015b0390a360015f55005b9091506020813d602011620005b9575b81620005a660209383620033ea565b8101031262000345575190600962000517565b3d915062000597565b91506020823d602011620005f4575b81620005e060209383620033ea565b8101031262000345579051906020620004ed565b3d9150620005d1565b6004545f91825b8281106200068857505050670de0b6b3a764000091620006249162003d10565b1062000632578480620004ae565b60405162461bcd60e51b815260206004820152602860248201527f4c656e64696e67506f6f6c3a204865616c746820666163746f722062656c6f77604482015267206d696e696d756d60c01b6064820152608490fd5b620006938162003256565b90546001600160a01b0360039290921b1c8116908a168103620007f457825b80620006cc575b5050620006c6906200357a565b62000604565b815f52600160205260405f209160ff835460081c169182158015620007e7575b620007d85760405163b3596f0760e01b815260048101929092526020826024817f00000000000000000000000000000000000000000000000000000000000000006001600160a01b03165afa91821562000351575f926200079e575b508162000758575b5050620006b9565b6200079393600262000781620006c6979a9562000300620002f9612710976200078b97620032a0565b91015490620032a0565b04906200356c565b93908a808062000750565b9091506020813d602011620007cf575b81620007bd60209383620033ea565b81010312620003455751908d62000748565b3d9150620007ae565b50505050620006c6906200357a565b50600284015415620006ec565b6200080033826200362d565b620006b2565b60405162461bcd60e51b815260206004820152603a60248201527f4c656e64696e67506f6f6c3a20496e73756666696369656e7420617661696c6160448201527f626c652062616c616e636520666f72207769746864726177616c0000000000006064820152608490fd5b9091506020813d602011620008a2575b816200089060209383620033ea565b81010312620003455751908462000463565b3d915062000881565b3462000345575f366003190112620003455760206040516127108152f35b3462000345575f3660031901126200034557604051806004548083526020809301809160045f527f8a35acfbc15ff81a39ae7d344fd709f28e8600b4aa8c65c6b64bfe7fe36bd19b905f5b86828210620009775786866200092d82880383620033ea565b60405192839281840190828552518091526040840192915f5b8281106200095657505050500390f35b83516001600160a01b03168552869550938101939281019260010162000946565b83546001600160a01b03168552909301926001928301920162000914565b3462000345575f366003190112620003455760206040516301e133808152f35b3462000345575f36600319011262000345576020604051670de0b6b3a76400008152f35b3462000345575f3660031901126200034557602060405160098152f35b3462000345576040366003190112620003455762000a1362003228565b6024356001600160a01b0362000a4d337f00000000000000000000000000000000000000000000000000000000000000008316146200408a565b821691825f52600160205262000a6a60ff60405f205416620032b4565b61271082101562000abd577fa9e6d8c6a7ceab34e1bbc36191cd138bd9190f9e9e04482afb77cecc652720b69162000aa460209262003da0565b835f526001825280600460405f200155604051908152a2005b60405162461bcd60e51b815260206004820152602860248201527f4c656e64696e67506f6f6c3a204e6577207265736572766520666163746f72206044820152670e8dede40d0d2ced60c31b6064820152608490fd5b3462000345576040366003190112620003455762000b3062003228565b62000b3a6200323f565b9060018060a01b038091165f52600360205260405f2091165f52602052602060405f2054604051908152f35b346200034557602080600319360112620003455760248162000b8762003228565b60405163b3596f0760e01b81526001600160a01b03918216600482015292839182907f0000000000000000000000000000000000000000000000000000000000000000165afa90811562000351575f9162000be6575b50604051908152f35b90508181813d831162000c11575b62000c008183620033ea565b810103126200034557518262000bdd565b503d62000bf4565b34620003455760203660031901126200034557602062000c5962000c3c62003228565b62000c5262000c4b8262003b96565b91620038c3565b9062003d10565b604051908152f35b3462000345576040366003190112620003455762000c7e62003228565b62000c886200323f565b9060018060a01b038091165f52600260205260405f2091165f52602052602060405f2054604051908152f35b3462000345576040366003190112620003455762000cd162003228565b62000cdb6200323f565b906001600160a01b0362000d13337f00000000000000000000000000000000000000000000000000000000000000008316146200408a565b80821692835f52600160205262000d3160ff60405f205416620032b4565b1690811562000d97577fae60f6fea74bb5af9a2c9aeff5cbaeea39b7a398213b6217b3834ab8f7b048dd9162000d6960209262003da0565b835f5260018252600360405f2001816bffffffffffffffffffffffff60a01b825416179055604051908152a2005b60405162461bcd60e51b815260206004820152602c60248201527f4c656e64696e67506f6f6c3a20496e76616c6964206e6577204952207374726160448201526b74656779206164647265737360a01b6064820152608490fd5b34620003455760203660031901126200034557600435600454811015620003455762000e1f60209162003256565b905460405160039290921b1c6001600160a01b03168152f35b34620003455760203660031901126200034557602062000c5962000e5b62003228565b6200384d565b3462000345576080366003190112620003455762000e7e62003228565b62000e886200323f565b90604435916064359267ffffffffffffffff928385116200034557366023860112156200034557846004013593841162000345573660248587010111620003455762000ed3620034b8565b60018060a01b039283811695865f526020926001845260405f209562000efd60ff885416620032b4565b85159062000f0c821562003300565b8216968715158062001296575b15620012435762000f688162000f4d62000f6060098b950154676765c793fa10079d601b1b928391600686015490620032a0565b04926007600a82015491015490620032a0565b0490620034f9565b10620011e55760098602908682046009141715620011d15761271090049687156200115157848660c48b848c95602462000fa388876200356c565b9962000fb1878b8762003507565b604051988997889663405b019d60e01b8852336004890152848801526044870152606486015260a060848601528260a486015201848401375f838284010152601f801991011681010301815f8b5af190811562000351575f9162001114575b50156200109e57926200105a7fc58f35ca649f2ebaf8f1189e10cb3c07d7255c417018d4002ad6dceb86d27e74959362001054600194620010959730908d6200340d565b62003da0565b875f5252600b60405f2001620010728682546200356c565b905560405191829133964291846040919493926060820195825260208201520152565b0390a460015f55005b60405162461bcd60e51b815260048101859052604260248201527f4c656e64696e67506f6f6c3a20466c617368206c6f616e20726563656976657260448201527f206578656375746564206f7065726174696f6e20756e7375636365737366756c6064820152616c7960f01b608482015260a490fd5b90508481813d831162001149575b6200112e8183620033ea565b81010312620003455751801515810362000345578962001010565b503d62001122565b60405162461bcd60e51b815260048101869052604c60248201527f4c656e64696e67506f6f6c3a20466c617368206c6f616e206665652063616e6e60448201527f6f74206265207a65726f2028616d6f756e7420746f6f20736d616c6c206f722060648201526b66656520746f6f206c6f772960a01b608482015260a490fd5b634e487b7160e01b5f52601160045260245ffd5b60405162461bcd60e51b815260048101869052603060248201527f4c656e64696e67506f6f6c3a204e6f7420656e6f756768206c6971756964697460448201526f3c903337b910333630b9b4103637b0b760811b6064820152608490fd5b60405162461bcd60e51b815260048101879052602560248201527f4c656e64696e67506f6f6c3a20496e76616c6964207265636569766572206164604482015264647265737360d81b6064820152608490fd5b503088141562000f19565b3462000345576101003660031901126200034557620012bf62003228565b602435151560243503620003455760ff6044351660443503620003455760a435906001600160a01b0382168203620003455762001327337f00000000000000000000000000000000000000000000000000000000000000006001600160a01b0316146200408a565b6001600160a01b0381161562001b5157602435620018ea575b60018060a01b0381165f52600160205260405f20805461ff0060443560081b1660ff60243515151661ffff19831617178255606435600183015560843560028301556003820160018060a01b0385166bffffffffffffffffffffffff60a01b82541617905560c435600483015560e4356005830155602435602435620018de575b15620017215750426008820155676765c793fa10079d601b1b6006820181905560078201555f60098201819055600a8201819055600b82018190556040516395d89b4160e01b815290816004816001600160a01b0387165afa90811562000351575f9162001703575b5062001482603960405180937f4d696e694161766520496e7465726573742042656172696e67000000000000006020830152620014718151809260208686019101620040eb565b8101036019810184520182620033ea565b6040516395d89b4160e01b81525f816004816001600160a01b0388165afa90811562000351575f91620016dc575b50620014ed60226040518093616d6160f01b6020830152620014dc8151809260208686019101620040eb565b8101036002810184520182620033ea565b604051918261140b81011067ffffffffffffffff61140b85011117620016785782916200154a620015619261140b620041a886393061140b86019081526001600160a01b0389166020820152608060408201819052019062004180565b9061140b84018203606061140b8601015262004180565b03905ff09081156200035157600c0180546001600160a01b0319166001600160a01b0392831617905581165f908152600560205260409020546200168c57600454680100000000000000008110156200167857816200160e7fd388f871554d05301d62535e6dd50db638eae8d1016765dcd1605696e91fd83893620015ef84600160e0960160045562003256565b90919082549060031b9160018060a01b03809116831b921b1916179055565b6004546001600160a01b0382165f908152600560205260409020555b604080516024351515815260443560ff1660208201526064359181019190915260843560608201526001600160a01b03948516608082015260c43560a082015260e43560c0820152931692a2005b634e487b7160e01b5f52604160045260245ffd5b60405162461bcd60e51b815260206004820152602260248201527f4c656e64696e67506f6f6c3a20417373657420616c726561647920696e206c696044820152611cdd60f21b6064820152608490fd5b620016fc91503d805f833e620016f38183620033ea565b8101906200410e565b85620014b0565b6200171a91503d805f833e620016f38183620033ea565b846200142a565b602435159081620018d2575b506200175f575b5060e07fd388f871554d05301d62535e6dd50db638eae8d1016765dcd1605696e91fd838916200162a565b600560205260405f205480156200187a57805f19810111620011d157600454805f19810111620011d1575f198181019083011062001833575b50506004549182156200181f57600c60e0927fd388f871554d05301d62535e6dd50db638eae8d1016765dcd1605696e91fd838945f1901620017da8162003256565b81546001600160a01b0360039290921b82901b191690915560049190915583165f908152600560205260408120550180546001600160a01b0319169055915062001734565b634e487b7160e01b5f52603160045260245ffd5b62001841905f190162003256565b905460039190911b1c6001600160a01b03166200186681620015ef5f19850162003256565b5f52600560205260405f2055838062001798565b60405162461bcd60e51b815260206004820152602a60248201527f4c656e64696e67506f6f6c3a204173736574206e6f7420696e206c69737420666044820152691bdc881c995b5bdd985b60b21b6064820152608490fd5b60ff915016846200172d565b5060ff811615620013c1565b620019006001600160a01b038316151562003d44565b6127108060c4351162001af857606435908082108062001aee575b1562001a9857608435918211918262001a8d575b50501562001a225760ff6044351615158062001a11575b15620019b25761138860e43510620013405760405162461bcd60e51b815260206004820152602c60248201527f4c656e64696e67506f6f6c3a204c69717569646174696f6e20626f6e7573206d60448201526b757374206265203c2035302560a01b6064820152608490fd5b60405162461bcd60e51b815260206004820152603160248201527f4c656e64696e67506f6f6c3a20417373657420646563696d616c73206d757374604482015270103132901f10181030b732101e1e90199b60791b6064820152608490fd5b50602460ff60443516111562001946565b60405162461bcd60e51b815260206004820152603c60248201527f4c656e64696e67506f6f6c3a204c69717569646174696f6e207468726573686f60448201527f6c64206d757374206265203e204c545620616e64203c3d2031303025000000006064820152608490fd5b10905083806200192f565b60405162461bcd60e51b815260206004820152602860248201527f4c656e64696e67506f6f6c3a204c5456206d757374206265203e203020616e64604482015267203c3d203130302560c01b6064820152608490fd5b508115156200191b565b60405162461bcd60e51b815260206004820152602b60248201527f4c656e64696e67506f6f6c3a205265736572766520666163746f72206d75737460448201526a206265203c3d203130302560a81b6064820152608490fd5b60405162461bcd60e51b815260206004820152602260248201527f4c656e64696e67506f6f6c3a20496e76616c6964206173736574206164647265604482015261737360f01b6064820152608490fd5b3462000345575f36600319011262000345576020604051676765c793fa10079d601b1b8152f35b34620003455760403660031901126200034557602062000c5962001beb62003228565b62001bf56200323f565b90620036fa565b3462000345576040366003190112620003455762001c1962003228565b602435906001600160a01b039062001c55337f00000000000000000000000000000000000000000000000000000000000000008416146200408a565b16805f52600160205262001c7060ff60405f205416620032b4565b61138882101562001c8e575f526001602052600560405f2001555f80f35b60405162461bcd60e51b815260206004820152602760248201527f4c656e64696e67506f6f6c3a204c69717569646174696f6e20626f6e757320746044820152660dede40d0d2ced60cb1b6064820152608490fd5b3462000345576040366003190112620003455762001d0062003228565b602490813562001d0f620034b8565b62001d1a3362003589565b62001d258262003da0565b60018060a01b0380921691825f526020936001855260405f209081549262001d5060ff8516620032b4565b84159362001d5f851562003300565b62001d6a33620038c3565b90838962001d783362003a15565b946040519283809263b3596f0760e01b82528d60048301527f0000000000000000000000000000000000000000000000000000000000000000165afa90811562000351575f916200204d575b50801562001ff45762001df392916200030060ff62001de862000307948c620032a0565b9260081c166200355a565b1162001fb15762001e1e906009830154676765c793fa10079d601b1b928391600686015490620032a0565b0493600a8401948362001e39600788549701548097620032a0565b049081811062001f6257879162001e5091620034f9565b1062001f0d578286029286840414171562001efa57509162001e997fc1cba78646fef030830d099fc25cb498953709c9d47d883848f81fd207174c9f94926200057e94620034da565b95855f526003815260405f2090335f525260405f2062001ebb8782546200356c565b905562001eca8682546200356c565b905562001ed981338662003507565b60405191829133964291846040919493926060820195825260208201520152565b634e487b7160e01b5f9081526011600452fd5b60405162461bcd60e51b8152600481018990526028818401527f4c656e64696e67506f6f6c3a20496e73756666696369656e7420706f6f6c206c604482015267697175696469747960c01b6064820152608490fd5b60848a856040519162461bcd60e51b83526004830152808201527f4c656e64696e67506f6f6c3a20496e636f6e73697374656e7420706f6f6c20736044820152637461746560e01b6064820152fd5b85601f6064926040519262461bcd60e51b845260048401528201527f426f72726f77206578636565647320617661696c61626c6520637265646974006044820152fd5b60405162461bcd60e51b8152600481018b9052602c818701527f4c656e64696e67506f6f6c3a20417373657420707269636520697320302c206360448201526b616e6e6f7420626f72726f7760a01b6064820152608490fd5b90508981813d831162002078575b620020678183620033ea565b810103126200034557518a62001dc4565b503d6200205b565b34620003455760403660031901126200034557602062000c59620020a362003228565b620020ad6200323f565b9062003791565b346200034557604036600319011262000345575f620020d262003228565b60243590620020e0620034b8565b620020eb8162003da0565b60018060a01b038091169182845260206001815260408520926200211360ff855416620032b4565b6200212083151562003300565b600c8401620021348282541615156200334d565b62002142843033896200340d565b80546006860154604051630ab714fb60e11b8152336004820152602481018790526044810191909152978491899160649183919087165af196871562000351575f976200223c575b505460405163244e77f960e01b815291839183916004918391165afa91821562000351575f9262002205575b5050906200057e9160097f8bab6aed5a508937051a144e61d6e61336834a66aaee250a00613ae6f744c42294015560405191829133964291846040919493926060820195825260208201520152565b9080939250813d831162002234575b620022208183620033ea565b8101031262000345579051826009620021b6565b503d62002214565b9096508281813d83116200226a575b620022578183620033ea565b810103126200034557519560046200218a565b503d6200224b565b346200034557602036600319011262000345576101c060ff6001600160a01b03806200229d62003228565b165f52600160205260405f2080549160018201546002830154826003850154166004850154600586015460068701549160078801549360088901549560098a015497600a8b015499600c600b8d01549c0154169b60206040519e8f928181161515845260081c1691015260408d015260608c015260808b015260a08a015260c089015260e08801526101008701526101208601526101408501526101608401526101808301526101a0820152f35b34620003455760403660031901126200034557602062000c596200236e62003228565b620023786200323f565b906200362d565b34620003455760203660031901126200034557602062000c59620023a262003228565b620037da565b3462000345575f36600319011262000345576040517f00000000000000000000000000000000000000000000000000000000000000006001600160a01b03168152602090f35b346200034557604036600319011262000345576200240b62003228565b6024359062002419620034b8565b620024248162003da0565b60018060a01b0316805f526020906001825260405f206200244960ff825416620032b4565b8315620025b057600781015492825f526003815260405f20335f52815260405f2054676765c793fa10079d601b1b9586620024858784620032a0565b049586156200255f578682108783180287189780830292830403620011d157620024af91620034da565b9486148062002555575b6200254b575b5090600a91835f526003815260405f2090335f525260405f20620024e5858254620034f9565b905501620024f5838254620034f9565b905562002505833033846200340d565b7f7b417e520d2b905fc5a1689d29d329358dd55efc60ed115aa165b0a2b64232c66040518062001095339633964291846040919493926060820195825260208201520152565b9350600a620024bf565b50808510620024b9565b60405162461bcd60e51b815260048101859052602360248201527f4c656e64696e67506f6f6c3a204e6f20626f72726f77696e677320746f20726560448201526270617960e81b6064820152608490fd5b60405162461bcd60e51b815260048101849052602560248201527f4c656e64696e67506f6f6c3a20526570617920616d6f756e74206d7573742062604482015264065203e20360dc1b6064820152608490fd5b34620003455760203660031901126200034557602062000c596200262662003228565b62003a15565b3462000345575f3660031901126200034557602060405160088152f35b346200034557602036600319011262000345576200266662003228565b5f6101e06040516200267881620033af565b8281528260208201528260408201528260608201528260808201528260a08201528260c08201528260e08201528261010082015282610120820152826101408201528261016082015282610180820152826101a0820152826101c0820152015260018060a01b0381165f52600160205260405f20905f80835460ff811693848095620029fb575b620028cc575b508484916001610200970154600283015460018060a01b036003850154166004850154600586015460068701549160078801549360088901549560098a01549760ff600a8c01549a600b8d01549c600c60018060a01b03910154169d6200277260405180608052620033af565b15156080515260081c1660206080510152604060805101526060608051015260808051015260a0608051015260c0608051015260e06080510152610100608051015261012060805101526101406080510152610160608051015261018060805101526101a060805101526101c060805101526101e06080510152604051901515815260ff6020608051015116602082015260406080510151604082015260606080510151606082015260018060a01b0360808051015116608082015260a0608051015160a082015260c0608051015160c082015260e0608051015160e08201526101006080510151610100820152610120608051015161012082015261014060805101516101408201526101606080510151610160820152610180608051015161018082015260018060a01b036101a06080510151166101a08201526101c060805101516101c08201526101e060805101516101e0820152f35b60038601546200299894509192506040916001600160a01b0316620028f182620037da565b91620028fd816200384d565b9062002925600b8a0154916200291e6200291782620037da565b916200384d565b90620034f9565b9060048a0154928651956200293a87620033cd565b86526020860152858501526060840152608083015282518080968194634ed9988560e01b83526004830191909160808060a0830194805184526020810151602085015260408101516040850152606081015160608501520151910152565b03915afa801562000351576102009484915f945f91620029bf575b50939291509462002705565b9050620029e991945060403d604011620029f3575b620029e08183620033ea565b81019062003881565b93909387620029b3565b503d620029d4565b5060038601546001600160a01b03161515620026ff565b34620003455760203660031901126200034557602062000c5962002a3562003228565b620038c3565b34620003455760203660031901126200034557602062000c5962002a5e62003228565b62003898565b34620003455760a0366003190112620003455762002a8162003228565b62002a8b6200323f565b906044356001600160a01b03811690036200034557606435608435801590811503620003455762002abb620034b8565b620031bd5762002acd60443562003589565b62002ad88362003da0565b62002ae38262003da0565b6001600160a01b038381165f9081526001602052604080822092851682529020805460ff811615620031645782549360ff85161562003111576044356001600160a01b03163314620030c057670de0b6b3a764000062002b5662002b4960443562003b96565b62000c52604435620038c3565b1015620030555762002b6b6044358862003791565b801562002fea5780821081831802811462002f935760405163b3596f0760e01b81526001600160a01b038981166004830152909690602090889060249082907f0000000000000000000000000000000000000000000000000000000000000000165afa96871562000351575f9762002f59575b5060405163b3596f0760e01b81526001600160a01b038981166004830152909390602090859060249082907f0000000000000000000000000000000000000000000000000000000000000000165afa93841562000351575f9462002f1f575b508715158062002f15575b1562002eb65760ff62001de884838162002c6e9762000300961091180218998a620032a0565b9160058401549061271091820193848311620011d15760ff62002cb29362002c9f62002cb89762002cab94620032a0565b049260081c166200355a565b90620032a0565b620034da565b918262002cc8604435876200362d565b1062002e4c5762002ce58430336001600160a01b038a166200340d565b676765c793fa10079d601b1b908185028581048303620011d157600a62002d1662002d6692600785015490620034da565b6001600160a01b038a81165f9081526003602090815260408083206044359094168352929052208054828111928118929092028218949162002d5a908690620034f9565b905501918254620034f9565b9055808302908382041483151715620011d157600962002d9062002dd492600685015490620034da565b6001600160a01b038781165f9081526002602090815260408083206044359094168352929052208054828111928118929092028218949162002d5a908690620034f9565b905562002dec81336001600160a01b03861662003507565b6040805192835260208301919091523390820152600160608201524260808201526001600160a01b0360443581169381169216907f54343dd5791108d018f6fb8def2c14d746f777c51e9924962237813a527528709060a090a460015f55005b608460405162461bcd60e51b815260206004820152604060248201527f4c656e64696e67506f6f6c3a204e6f7420656e6f756768207573657220636f6c60448201527f6c61746572616c20746f207365697a6520666f72206c69717569646174696f6e6064820152fd5b60405162461bcd60e51b815260206004820152603160248201527f4c656e64696e67506f6f6c3a204f7261636c6520707269636520696e76616c6960448201527032103337b9103634b8bab4b230ba34b7b760791b6064820152608490fd5b5083151562002c48565b9093506020813d60201162002f50575b8162002f3e60209383620033ea565b81010312620003455751928a62002c3d565b3d915062002f2f565b9096506020813d60201162002f8a575b8162002f7860209383620033ea565b81010312620003455751958962002bde565b3d915062002f69565b60405162461bcd60e51b815260206004820152602960248201527f4c656e64696e67506f6f6c3a204465627420746f20636f7665722063616e6e6f60448201526874206265207a65726f60b81b6064820152608490fd5b60405162461bcd60e51b815260206004820152603e60248201527f4c656e64696e67506f6f6c3a205573657220686173206e6f2064656274206f6660448201527f2073706563696669656420617373657420746f206c69717569646174652000006064820152608490fd5b60405162461bcd60e51b815260206004820152603760248201527f4c656e64696e67506f6f6c3a20506f736974696f6e2063616e6e6f742062652060448201527f6c69717569646174656420284846206865616c746879290000000000000000006064820152608490fd5b60405162461bcd60e51b815260206004820152602360248201527f4c656e64696e67506f6f6c3a2043616e206e6f74206c6971756964617465207360448201526232b63360e91b6064820152608490fd5b60405162461bcd60e51b815260206004820152602560248201527f4c656e64696e67506f6f6c3a2044656274206173736574206e6f7420737570706044820152641bdc9d195960da1b6064820152608490fd5b60405162461bcd60e51b815260206004820152602b60248201527f4c656e64696e67506f6f6c3a20436f6c6c61746572616c206173736574206e6f60448201526a1d081cdd5c1c1bdc9d195960aa1b6064820152608490fd5b60405162461bcd60e51b815260206004820152603960248201527f4c656e64696e67506f6f6c3a204f6e6c7920756e6465726c79696e6720636f6c60448201527f6c61746572616c20737570706f7274656420666f72206e6f77000000000000006064820152608490fd5b600435906001600160a01b03821682036200034557565b602435906001600160a01b03821682036200034557565b6004548110156200328c5760045f527f8a35acfbc15ff81a39ae7d344fd709f28e8600b4aa8c65c6b64bfe7fe36bd19b01905f90565b634e487b7160e01b5f52603260045260245ffd5b81810292918115918404141715620011d157565b15620032bc57565b606460405162461bcd60e51b815260206004820152602060248201527f4c656e64696e67506f6f6c3a204173736574206e6f7420737570706f727465646044820152fd5b156200330857565b60405162461bcd60e51b815260206004820152601f60248201527f4c656e64696e67506f6f6c3a20416d6f756e74206d757374206265203e2030006044820152606490fd5b156200335557565b60405162461bcd60e51b815260206004820152602c60248201527f4c656e64696e67506f6f6c3a2061546f6b656e206e6f7420636f6e666967757260448201526b195908199bdc88185cdcd95d60a21b6064820152608490fd5b610200810190811067ffffffffffffffff8211176200167857604052565b60a0810190811067ffffffffffffffff8211176200167857604052565b90601f8019910116810190811067ffffffffffffffff8211176200167857604052565b6040516323b872dd60e01b60208201526001600160a01b03928316602482015292909116604483015260648083019390935291815262003458916200345282620033cd565b6200345a565b565b905f602091828151910182855af11562000351575f513d620034ae57506001600160a01b0381163b155b6200348c5750565b604051635274afe760e01b81526001600160a01b039091166004820152602490fd5b6001141562003484565b60025f5414620034c85760025f55565b604051633ee5aeb560e01b8152600490fd5b8115620034e5570490565b634e487b7160e01b5f52601260045260245ffd5b91908203918211620011d157565b60405163a9059cbb60e01b60208201526001600160a01b039092166024830152604480830193909352918152608081019167ffffffffffffffff831182841017620016785762003458926040526200345a565b60ff16604d8111620011d157600a0a90565b91908201809211620011d157565b5f198114620011d15760010190565b5f5b600454811015620036295780620035a6620035f19262003256565b60018060a01b03809254600392831b1c1691825f5260209060028252604091825f2091881691825f528152825f2054159384159462003609575b50505050620035f7575b506200357a565b6200358b565b620036029062003da0565b5f620035ea565b9091929350845f528152825f20915f52525f205415155f808080620035e0565b5050565b60018060a01b0391825f921682526001602052604082209280600c85015416918215620036f257604051630ed1279f60e11b81529116600482015290602090829060249082905afa918215620036e6578092620036a8575b5050620036a4906006676765c793fa10079d601b1b93015490620032a0565b0490565b9091506020823d8211620036dd575b81620036c660209383620033ea565b81010312620036da57505181600662003685565b80fd5b3d9150620036b7565b604051903d90823e3d90fd5b505050905090565b6001600160a01b039081165f908152600160205260408120600c015490929082169182156200378b5760246020926040519485938492630ed1279f60e11b84521660048301525afa918215620036e65780926200375657505090565b9091506020823d821162003782575b816200377460209383620033ea565b81010312620036da57505190565b3d915062003765565b50505090565b620036a490676765c793fa10079d601b1b9260018060a01b038092165f52600160205260405f2091600360205260405f2091165f52602052600760405f205491015490620032a0565b6001600160a01b039081165f908152600160205260408120600c8101549092168015620038475760206004916040519283809263244e77f960e01b82525afa918215620036e6578092620036a8575050620036a4906006676765c793fa10079d601b1b93015490620032a0565b50905090565b60018060a01b03165f526001602052676765c793fa10079d601b1b620036a460405f206007600a82015491015490620032a0565b919082604091031262000345576020825192015190565b620038a762000c4b8262003a15565b808211620038b55750505f90565b620038c091620034f9565b90565b600480545f928392835b838110620038dd57505050505090565b620038e88162003256565b90546001600160a01b0360039290921b1c81169062003908858362003791565b8062003923575b5050506200391d906200357a565b620038cd565b8288526020916001835260409260ff848b205460081c1694851562003a04578190602486518095819363b3596f0760e01b83528c8301527f0000000000000000000000000000000000000000000000000000000000000000165afa938415620039fb57508993620039c1575b505081156200390f57620039b79262000300620002f96200391d969b946200030794620032a0565b95905f806200390f565b9080929350813d8311620039f3575b620039dc8183620033ea565b81010312620039ef5751905f806200398f565b8780fd5b503d620039d0565b513d8b823e3d90fd5b5050505050506200391d906200357a565b600480545f928392835b83811062003a2f57505050505090565b62003a3a8162003256565b90546001600160a01b0360039290921b1c81169062003a5a85836200362d565b918262003a76575b50505062003a70906200357a565b62003a1f565b808852600191602093838552604091828b209560ff875460081c16948515801562003b8a575b62003b7757819060248b8751958693849263b3596f0760e01b84528301527f0000000000000000000000000000000000000000000000000000000000000000165afa93841562003b6e57508b9362003b34575b50508162003b00575b505062003a62565b9362003a70959a93620007816127109462000300620002f96200078b9662003b289a620032a0565b95905f80808062003af8565b9080929350813d831162003b66575b62003b4f8183620033ea565b8101031262003b625751905f8062003aef565b8980fd5b503d62003b43565b513d8d823e3d90fd5b505050505050505062003a70906200357a565b50868801541562003a9c565b600480545f928392835b83811062003bb057505050505090565b62003bbb8162003256565b90546001600160a01b039160031b1c811662003bd885826200362d565b918262003bf4575b50505062003bee906200357a565b62003ba0565b81885260209260018452604091828a209460ff865460081c16948515801562003d03575b62003cf1578190602486518095819363b3596f0760e01b83528d8301527f0000000000000000000000000000000000000000000000000000000000000000165afa93841562003ce857508a9362003cae575b50508162003c7a575b5062003be0565b62003ca39360026200078162003bee979c9562000300620002f9612710976200078b97620032a0565b95905f808062003c73565b9080929350813d831162003ce0575b62003cc98183620033ea565b8101031262003cdc5751905f8062003c6a565b8880fd5b503d62003cbd565b513d8c823e3d90fd5b5050505050505062003bee906200357a565b5060028701541562003c18565b908062003d1e5750505f1990565b670de0b6b3a764000091828102928184041490151715620011d157620038c091620034da565b1562003d4c57565b60405162461bcd60e51b815260206004820152602660248201527f4c656e64696e67506f6f6c3a20496e746572657374207374726174656779206e6044820152651bdd081cd95d60d21b6064820152608490fd5b60018060a01b03808216905f82815260016020526040918282209160ff8354161580156200407c575b6200407457600883019162003de0835442620034f9565b4290935560098401541590818062004067575b6200405d576003850154169362003e0c85151562003d44565b62003e1788620037da565b9362003eb88762003e288b6200384d565b96600b85019862003e448a549d6200291e6200291782620037da565b60048701549984519362003e5885620033cd565b845260208401528d84840152606083015288608083015282518080958194634ed9988560e01b83526004830191909160808060a0830194805184526020810151602085015260408101516040850152606081015160608501520151910152565b03915afa9384156200405357859186956200402b575b5082901562003fd0575b5050600a820154918262003ef3575b50505050505050505050565b600762003f0b9101916301e1338083549504620032a0565b93676765c793fa10079d601b1b9485019081861162003fbc575062003f32859185620032a0565b0480915582811162003f46575b8062003ee7565b62003f569262002cab91620034f9565b04908162003f68575b80808062003f3f565b62003f7b6127109162003f8493620032a0565b0480956200356c565b9055519182527fae6c6b4e3c2c4a56f57c74acd76cfcc55ab2de689afd78f6f006a2143ebd03fd60203093a35f808080808062003f5f565b634e487b7160e01b81526011600452602490fd5b6301e1338062003fe19204620032a0565b60068301908154676765c793fa10079d601b1b918201908183116200401757906200400c91620032a0565b0490555f8162003ed8565b634e487b7160e01b88526011600452602488fd5b6200404a919550839250893d8b11620029f357620029e08183620033ea565b94909162003ece565b88513d87823e3d90fd5b5050505050505050565b50600a8501541562003df3565b505050505050565b506008830154421462003dc9565b156200409257565b60405162461bcd60e51b815260206004820152602b60248201527f4c656e64696e67506f6f6c3a2043616c6c6572206973206e6f7420746865204360448201526a37b73334b3bab930ba37b960a91b6064820152608490fd5b5f5b838110620040fd5750505f910152565b8181015183820152602001620040ed565b6020818303126200034557805167ffffffffffffffff918282116200034557019082601f83011215620003455781519081116200167857604051926200415f601f8301601f191660200185620033ea565b818452602082840101116200034557620038c09160208085019101620040eb565b906020916200419b81518092818552858086019101620040eb565b601f01601f191601019056fe60c06040523462000382576200140b803803806200001d8162000386565b928339810160808282031262000382576200003882620003ac565b9060209062000049828501620003ac565b604085015190946001600160401b03918281116200038257836200006f918301620003c1565b9260608201518381116200038257620000899201620003c1565b82518281116200028d576003918254916001958684811c9416801562000377575b8885101462000363578190601f9485811162000310575b508890858311600114620002ad575f92620002a1575b50505f1982861b1c191690861b1783555b80519384116200028d5760049586548681811c9116801562000282575b828210146200026f5783811162000227575b5080928511600114620001bd57509383949184925f95620001b1575b50501b925f19911b1c19161790555b6001600160a01b031660805260a052604051610fd9908162000432823960805181818160ff01528181610316015281816105060152818161070c01528181610a4201528181610e120152610eeb015260a0518181816104d701528181610b2701528181610de20152610eb50152f35b015193505f8062000133565b92919084601f198116885f52855f20955f905b898383106200020c5750505010620001f2575b50505050811b01905562000142565b01519060f8845f19921b161c191690555f808080620001e3565b858701518955909701969485019488935090810190620001d0565b875f52815f208480880160051c82019284891062000265575b0160051c019087905b8281106200025957505062000117565b5f815501879062000249565b9250819262000240565b602288634e487b7160e01b5f525260245ffd5b90607f169062000105565b634e487b7160e01b5f52604160045260245ffd5b015190505f80620000d7565b90889350601f19831691875f528a5f20925f5b8c828210620002f95750508411620002e1575b505050811b018355620000e8565b01515f1983881b60f8161c191690555f8080620002d3565b8385015186558c97909501949384019301620002c0565b909150855f52885f208580850160051c8201928b861062000359575b918a91869594930160051c01915b8281106200034a575050620000c1565b5f81558594508a91016200033a565b925081926200032c565b634e487b7160e01b5f52602260045260245ffd5b93607f1693620000aa565b5f80fd5b6040519190601f01601f191682016001600160401b038111838210176200028d57604052565b51906001600160a01b03821682036200038257565b919080601f84011215620003825782516001600160401b0381116200028d57602090620003f7601f8201601f1916830162000386565b9281845282828701011162000382575f5b8181106200041d5750825f9394955001015290565b85810183015184820184015282016200040856fe6080604081815260049081361015610015575f80fd5b5f92833560e01c9081630500510d14610a2e5750806306fdde031461093b578063095ea7b314610891578063156e29f6146106e957806318160ddd146106cc5780631da24f3e1461069557806323b872dd146105a3578063244e77f914610584578063313ce567146104ac57806370a082311461047f57806382776b621461034557806395d89b411461037b578063a9059cbb1461034a578063b16a19de14610345578063b4dcfc7714610301578063dd62ed3e146102b45763f5298aca146100dc575f80fd5b346102b0576100ea36610ae8565b91946001600160a01b039490929091610126337f0000000000000000000000000000000000000000000000000000000000000000881614610f49565b811561026d576b033b2e3c9fd0803ce80000009081810291818304149015171561025a579061015491610d92565b9384156102095785169485156101f3578583528260205283832054918583106101bf5750509383602095828452838752038383205583600254036002557fddf252ad1be2c89b69c2b068fc378daa952ba7f163c4a11628f55a4df523b3ef858451868152a351908152f35b845163391434e360e21b81526001600160a01b03909216908201908152602081018390526040810186905281906060010390fd5b509151634b637e8f60e11b815291820152602490fd5b835162461bcd60e51b8152602081840152602560248201527f41546f6b656e3a20416d6f756e7420746f206275726e2063616e6e6f74206265604482015264207a65726f60d81b6064820152608490fd5b634e487b7160e01b845260118352602484fd5b845162461bcd60e51b8152602081850152601c60248201527f41546f6b656e3a20496e6465782063616e6e6f74206265207a65726f000000006044820152606490fd5b8280fd5b8382346102fd57806003193601126102fd57806020926102d2610ab8565b6102da610ad2565b6001600160a01b0391821683526001865283832091168252845220549051908152f35b5080fd5b8382346102fd57816003193601126102fd57517f00000000000000000000000000000000000000000000000000000000000000006001600160a01b03168152602090f35b610b12565b8382346102fd57806003193601126102fd5760209061037461036a610ab8565b6024359033610b8c565b5160018152f35b508290346102fd57816003193601126102fd57805191809380549160019083821c92828516948515610475575b60209586861081146104625785895290811561043e57506001146103e6575b6103e287876103d8828c0383610b56565b5191829182610a71565b0390f35b81529295507f8a35acfbc15ff81a39ae7d344fd709f28e8600b4aa8c65c6b64bfe7fe36bd19b5b82841061042b57505050826103e2946103d8928201019486806103c7565b805486850188015292860192810161040d565b60ff19168887015250505050151560051b83010192506103d8826103e286806103c7565b634e487b7160e01b845260228352602484fd5b93607f16936103a8565b8382346102fd5760203660031901126102fd576020906104a56104a0610ab8565b610db0565b9051908152f35b50823461058157806003193601126105815781518093631652e7b760e01b825260018060a01b0390817f000000000000000000000000000000000000000000000000000000000000000016908301528160246102009384937f0000000000000000000000000000000000000000000000000000000000000000165afa9182156105765760209460ff93869390610549575b50500151169051908152f35b6105689250803d1061056f575b6105608183610b56565b810190610c7b565b858061053d565b503d610556565b8351903d90823e3d90fd5b80fd5b8382346102fd57816003193601126102fd576020906002549051908152f35b509134610581576060366003190112610581576105be610ab8565b6105c6610ad2565b916044359360018060a01b038316808352600160205286832033845260205286832054915f198310610601575b602088610374898989610b8c565b86831061066957811561065257331561063b575082526001602090815286832033845281529186902090859003905582906103745f6105f3565b8751634a1406b160e11b8152908101849052602490fd5b875163e602df0560e01b8152908101849052602490fd5b8751637dc7a0d960e11b8152339181019182526020820193909352604081018790528291506060010390fd5b8382346102fd5760203660031901126102fd5760209181906001600160a01b036106bd610ab8565b16815280845220549051908152f35b8382346102fd57816003193601126102fd576020906104a5610e95565b508290346102fd576106fa36610ae8565b9193916001600160a01b0391610733337f0000000000000000000000000000000000000000000000000000000000000000851614610f49565b811561084e576b033b2e3c9fd0803ce80000009081810291818304149015171561083b579061076191610d92565b9384156107ea57169081156107d4576002548481018091116107c157602095506002558181528085528281208481540190557fddf252ad1be2c89b69c2b068fc378daa952ba7f163c4a11628f55a4df523b3ef858451868152a351908152f35b634e487b7160e01b825260118652602482fd5b8460249184519163ec442f0560e01b8352820152fd5b835162461bcd60e51b8152602081880152602560248201527f41546f6b656e3a20416d6f756e7420746f206d696e742063616e6e6f74206265604482015264207a65726f60d81b6064820152608490fd5b634e487b7160e01b845260118752602484fd5b845162461bcd60e51b8152602081890152601960248201527f41546f6b656e3a20496e64657820636f6e6e6f742062652030000000000000006044820152606490fd5b5090346102b057816003193601126102b0576108ab610ab8565b602435903315610924576001600160a01b031691821561090d57508083602095338152600187528181208582528752205582519081527f8c5be1e5ebec7d5bd14f71427d1e84f3dd0314c0f7b2291e5b200ac8c7c3b925843392a35160018152f35b8351634a1406b160e11b8152908101859052602490fd5b835163e602df0560e01b8152808401869052602490fd5b50346102b057826003193601126102b057805191836003549060019082821c928281168015610a24575b6020958686108214610a1157508488529081156109ef5750600114610996575b6103e286866103d8828b0383610b56565b929550600383527fc2575a0e9e593c00f959f8c92f12db2869c3395a3b0502d05e2516446f71f85b5b8284106109dc57505050826103e2946103d892820101945f610985565b80548685018801529286019281016109bf565b60ff191687860152505050151560051b83010192506103d8826103e25f610985565b634e487b7160e01b845260229052602483fd5b93607f1693610965565b8490346102fd57816003193601126102fd577f00000000000000000000000000000000000000000000000000000000000000006001600160a01b03168152602090f35b602080825282518183018190529093925f5b828110610aa457505060409293505f838284010152601f8019910116010190565b818101860151848201604001528501610a83565b600435906001600160a01b0382168203610ace57565b5f80fd5b602435906001600160a01b0382168203610ace57565b6060906003190112610ace576004356001600160a01b0381168103610ace57906024359060443590565b34610ace575f366003190112610ace576040517f00000000000000000000000000000000000000000000000000000000000000006001600160a01b03168152602090f35b90601f8019910116810190811067ffffffffffffffff821117610b7857604052565b634e487b7160e01b5f52604160045260245ffd5b916001600160a01b03808416928315610c4f5716928315610c37575f9083825281602052604082205490838210610c05575091604082827fddf252ad1be2c89b69c2b068fc378daa952ba7f163c4a11628f55a4df523b3ef958760209652828652038282205586815220818154019055604051908152a3565b60405163391434e360e21b81526001600160a01b03919091166004820152602481019190915260448101839052606490fd5b60405163ec442f0560e01b81525f6004820152602490fd5b604051634b637e8f60e11b81525f6004820152602490fd5b51906001600160a01b0382168203610ace57565b80916102009283910312610ace5760405191820182811067ffffffffffffffff821117610b785760405280518015158103610ace578252602081015160ff81168103610ace5760208301526040810151604083015260608101516060830152610ce660808201610c67565b608083015260a081015160a083015260c081015160c083015260e081015160e0830152610100808201519083015261012080820151908301526101408082015190830152610160808201519083015261018080820151908301526101a0610d4e818301610c67565b908301526101c080820151908301526101e0809101519082015290565b81810292918115918404141715610d7e57565b634e487b7160e01b5f52601160045260245ffd5b8115610d9c570490565b634e487b7160e01b5f52601260045260245ffd5b6001600160a01b039081165f90815260208190526040812054918215610e8f576040518091631652e7b760e01b8252807f00000000000000000000000000000000000000000000000000000000000000001660048301528160246102009384937f0000000000000000000000000000000000000000000000000000000000000000165afa928315610e8357926b033b2e3c9fd0803ce8000000949260e092610e629592610e66575b5050015190610d6b565b0490565b610e7c9250803d1061056f576105608183610b56565b5f80610e58565b604051903d90823e3d90fd5b50905090565b6002548015610f4457604051631652e7b760e01b81526001600160a01b037f00000000000000000000000000000000000000000000000000000000000000008116600483015261020092908390839060249082907f0000000000000000000000000000000000000000000000000000000000000000165afa928315610f39576b033b2e3c9fd0803ce800000093610e629360e0925f92610e66575050015190610d6b565b6040513d5f823e3d90fd5b505f90565b15610f5057565b60405162461bcd60e51b815260206004820152602560248201527f41546f6b656e3a2043616c6c6572206973206e6f7420746865204c656e64696e60448201526419d41bdbdb60da1b6064820152608490fdfea26469706673582212201ce4719ce8bfee603f7fc5b7d94a9e092a405bf7c33331e01285d9c0d23ba21b64736f6c63430008140033a2646970667358221220f456891b8d0d08acef2d53c9ef5035f6447ccdda862758e1bf0b855f144a6dab64736f6c63430008140033",
    "linkReferences": {}
  },
  "methodIdentifiers": {
    "FLASHLOAN_FEE_BASIS_POINTS()": "738de0ec",
    "HEALTH_FACTOR_PRECISION()": "7945afbd",
    "MINIMUM_HEALTH_FACTOR()": "df60481d",
    "ORACLE_PRICE_DECIMALS()": "1a070739",
    "PERCENTAGE_FACTOR()": "ee01e5e7",
    "RAY()": "552033c4",
    "SECONDS_PER_YEAR_FOR_RATES()": "e2ea16e9",
    "assetData(address)": "41fee44a",
    "borrow(address,uint256)": "4b8a3529",
    "calculateHealthFactor(address)": "9ce625f7",
    "configurator()": "2b507df8",
    "configureAsset(address,bool,uint8,uint256,uint256,address,uint256,uint256)": "5817f36c",
    "deposit(address,uint256)": "47e7ef24",
    "flashLoan(address,address,uint256,bytes)": "5cffe9de",
    "getAssetData(address)": "1652e7b7",
    "getAssetPrice(address)": "b3596f07",
    "getCurrentTotalActualBorrows(address)": "6055ebd1",
    "getCurrentTotalActualDeposits(address)": "3836f40d",
    "getEffectiveUserBorrowBalance(address,address)": "4aef6620",
    "getEffectiveUserDeposit(address,address)": "3fe42d60",
    "getFlashLoanFeePercentage()": "d877845c",
    "getPriceOracle()": "fca513a8",
    "getScaledUserBorrowBalance(address,address)": "145f65dc",
    "getScaledUserDeposit(address,address)": "519bde40",
    "getSupportedAssets()": "e5406dbf",
    "getUserAvailableBorrowsUSD(address)": "0999e511",
    "getUserBorrowPowerUSD(address)": "1b6c0676",
    "getUserTotalCollateralUSD(address)": "fe35ea95",
    "getUserTotalDebtUSD(address)": "15deef4b",
    "liquidationCall(address,address,address,uint256,bool)": "00a718a9",
    "priceOracle()": "2630c12f",
    "repay(address,uint256)": "22867d78",
    "scaledUserBorrows(address,address)": "b805b9fa",
    "scaledUserDeposits(address,address)": "9c76c3f3",
    "setAssetInterestRateStrategy(address,address)": "79083d2f",
    "setAssetLiquidationBonus(address,uint256)": "505b59a6",
    "setAssetReserveFactor(address,uint256)": "cf6d6fa0",
    "supportedAssetsList(uint256)": "771d2744",
    "withdraw(address,uint256)": "f3fef3a3"
  },
  "id": 37
}