{
  "abi": [
    {
      "type": "constructor",
      "inputs": [],
      "stateMutability": "nonpayable"
    },
    {
      "type": "function",
      "name": "PRICE_DECIMALS",
      "inputs": [],
      "outputs": [
        {
          "name": "",
          "type": "uint8",
          "internalType": "uint8"
        }
      ],
      "stateMutability": "view"
    },
    {
      "type": "function",
      "name": "getAssetPrice",
      "inputs": [
        {
          "name": "_asset",
          "type": "address",
          "internalType": "address"
        }
      ],
      "outputs": [
        {
          "name": "price",
          "type": "uint256",
          "internalType": "uint256"
        }
      ],
      "stateMutability": "view"
    },
    {
      "type": "function",
      "name": "getPriceDecimals",
      "inputs": [],
      "outputs": [
        {
          "name": "",
          "type": "uint8",
          "internalType": "uint8"
        }
      ],
      "stateMutability": "pure"
    },
    {
      "type": "function",
      "name": "owner",
      "inputs": [],
      "outputs": [
        {
          "name": "",
          "type": "address",
          "internalType": "address"
        }
      ],
      "stateMutability": "view"
    },
    {
      "type": "function",
      "name": "renounceOwnership",
      "inputs": [],
      "outputs": [],
      "stateMutability": "nonpayable"
    },
    {
      "type": "function",
      "name": "setAssetPrice",
      "inputs": [
        {
          "name": "_asset",
          "type": "address",
          "internalType": "address"
        },
        {
          "name": "_price",
          "type": "uint256",
          "internalType": "uint256"
        }
      ],
      "outputs": [],
      "stateMutability": "nonpayable"
    },
    {
      "type": "function",
      "name": "transferOwnership",
      "inputs": [
        {
          "name": "newOwner",
          "type": "address",
          "internalType": "address"
        }
      ],
      "outputs": [],
      "stateMutability": "nonpayable"
    },
    {
      "type": "event",
      "name": "OwnershipTransferred",
      "inputs": [
        {
          "name": "previousOwner",
          "type": "address",
          "indexed": true,
          "internalType": "address"
        },
        {
          "name": "newOwner",
          "type": "address",
          "indexed": true,
          "internalType": "address"
        }
      ],
      "anonymous": false
    },
    {
      "type": "error",
      "name": "OwnableInvalidOwner",
      "inputs": [
        {
          "name": "owner",
          "type": "address",
          "internalType": "address"
        }
      ]
    }
  ],
  "bytecode": {
    "object": "0x60808060405234610078573315610063575f8054336001600160a01b03198216811783556040519290916001600160a01b0316907f8be0079c531659141344cd1fd0a4f28419497f9722a3daafe3b4186f6b6457e09080a361031c908161007d8239f35b631e4fbdf760e01b81525f6004820152602490fd5b5f80fdfe608060408181526004361015610013575f80fd5b5f91823560e01c9081631b30aafc1461025a5750806351323f72146101ca578063715018a61461016d5780638da5cb5b14610146578063b3596f071461010f578063f1a640f8146100f45763f2fde38b1461006c575f80fd5b346100f05760203660031901126100f057610085610275565b61008d61028f565b6001600160a01b039081169182156100d9575082546001600160a01b0319811683178455167f8be0079c531659141344cd1fd0a4f28419497f9722a3daafe3b4186f6b6457e08380a380f35b51631e4fbdf760e01b815260048101849052602490fd5b5080fd5b50346100f057816003193601126100f0576020905160088152f35b50346100f05760203660031901126100f05760209181906001600160a01b03610136610275565b1681526001845220549051908152f35b50346100f057816003193601126100f057905490516001600160a01b039091168152602090f35b82346101c757806003193601126101c75761018661028f565b80546001600160a01b03198116825581906001600160a01b03167f8be0079c531659141344cd1fd0a4f28419497f9722a3daafe3b4186f6b6457e08280a380f35b80fd5b50346100f057806003193601126100f0576101e3610275565b6101eb61028f565b6001600160a01b0316801561020b57825260016020526024359082205580f35b815162461bcd60e51b815260206004820152602260248201527f50726963654f7261636c653a20496e76616c6964206173736574206164647265604482015261737360f01b6064820152608490fd5b8390346100f057816003193601126100f05780600860209252f35b600435906001600160a01b038216820361028b57565b5f80fd5b5f546001600160a01b031633036102a257565b606460405162461bcd60e51b815260206004820152602060248201527f4f776e61626c653a2063616c6c6572206973206e6f7420746865206f776e65726044820152fdfea2646970667358221220a4071ea26414b381e3dd0f746034ef00627d89abf8e87c76495ba0df01d133e264736f6c63430008140033",
    "linkReferences": {}
  },
  "methodIdentifiers": {
    "PRICE_DECIMALS()": "f1a640f8",
    "getAssetPrice(address)": "b3596f07",
    "getPriceDecimals()": "1b30aafc",
    "owner()": "8da5cb5b",
    "renounceOwnership()": "715018a6",
    "setAssetPrice(address,uint256)": "51323f72",
    "transferOwnership(address)": "f2fde38b"
  },
  "id": 45
}